:1000000085C10000B3C10000B1C10000AFC1000054
:10001000ADC10000ABC10000A9C10000A7C1000034
:10002000A5C10000A3C10000A1C100009FC1000044
:100030009DC100009BC1000099C1000097C1000054
:1000400095C1000093C1000091C100008FC1000064
:100050008DC100008BC1000089C1000014C60000E2
:1000600085C10000F7C30000CCC300007FC10000C1
:100070007DC100007BC1000079C1000077C1000094
:1000800075C1000073C1000071C1000046C60000C8
:100090008FC3000064C3000069C1000067C6000090
:1000A00065C1000063C1000061C100005FC10000C4
:1000B0005DC100005BC1000059C1000057C10000D4
:1000C00055C1000053C1000051C100004FC10000E4
:1000D0004DC100004BC1000019C30000EEC200007A
:1000E00045C10000540C120F3E11100C3E11D90CEA
:1000F0003E113E11130D3E113E11D10D9B0C3E11D0
:100100000F0E550D3E11CC0E970D3E113E11890E6E
:10011000FB0F3E11FB0FFB0F3E116E0FFB0FFB0F92
:100120003E11FB0FFB0F3E113E11FB0F3E113E1126
:10013000FB0F3E113E11FB0FC910C910D910D91089
:100140003E113E113E113E113E113E113E113E1137
:100150003E113E113E113E113E11F9102E113E117D
:10016000E91033103E113E114E102E11171184105C
:100170001A103E119F104E103E11F9106B103E11D7
:10018000E9109F10ED126E136E136A136E136E1347
:100190006E136E136E136E136E136E136E136E1357
:1001A0006E136E136E136E136E136E13AD126E1309
:1001B0006E13E012B912CC12791285125C126D1214
:1001C0006E139112A112BC02BF02AE02B202B802BB
:1001D000F602C302C702CD02D102D502DB02DF0262
:1001E000E302F602E902ED02F10200002100240020
:1001F00027002A002D003000330001010000040117
:1002000007010A0100002200250028002B002E0013
:100210003100340002010000050108010B0100005B
:1002200020002300260029002C002F0032000001AE
:100230000000030106010901050505050705080879
:100240000808020202020A0A080804040404010160
:100250000101010101010303030303030303040775
:1002600007070C0C0C0C0C0C0C0C0202020206060C
:100270000606060606060B0B0B0B0B0B0B0B0102FF
:1002800010202008081020401020408002010201A8
:100290000804020101020408102040808040201060
:1002A00008040201800402018040201008040201B9
:1002B0000804020101020408102040800102040821
:1002C0001020408000000A0B02090C0D0E080703E5
:1002D0000401000000000000000000000000000019
:1002E000000000000000000000000000000000000E
:1002F00012111000000000000000000000000000CB
:1003000000000000000000000000A21311241FBE26
:10031000CFEFD1E2DEBFCDBF00E00CBF13E0A0E025
:10032000B2E0E8EDF9E200E00BBF02C007900D92E9
:10033000A636B107D9F726E0A6E6B3E001C01D92C4
:10034000A73DB207E1F711E0C6E8D1E000E006C042
:1003500021970109802FFE010E94DE14C538D107C4
:1003600080E00807A9F7A5D70C94EA1449CEFC0150
:10037000A089B1898C91A689B78982FD0FC09C9113
:10038000818D8F5F8F73228D821749F0218DDF0160
:10039000A20FB11D5D969C93818F08958C91089555
:1003A000FC01918D828D981761F0828DDF01A80F7D
:1003B000B11D5D968C91928D9F5F9F73928F90E09F
:1003C00008958FEF9FEF0895FC01918D828D98170E
:1003D00031F0828DE80FF11D858D90E008958FEF4B
:1003E0009FEF0895FC01918D228D892F90E0805C14
:1003F0009F4F821B91098F739927089585E894E098
:10040000F1DF21E0892B09F420E0822F089582E2B8
:1004100095E0E8DF21E0892B09F420E0822F0895A0
:100420008FEB95E0DFDF21E0892B09F420E0822FBC
:100430000895FC01848DDF01A80FB11DA35ABF4FA1
:100440002C91848D90E001968F739927848FA689D3
:10045000B7892C93A089B1898C9180648C93938DFA
:10046000848D981306C00288F389E02D80818F7DEA
:1004700080830895EF92FF920F931F93CF93DF93A2
:10048000EC0181E0888F9B8D8C8D981305C0E889E5
:10049000F989808185FD23C0F62E0B8D10E00F5F5A
:1004A0001F4F0F731127E02E8C8DE8120BC00FB673
:1004B00007FCFACFE889F989808185FFF5CFCE0165
:1004C000B8DFF2CF8B8DFE01E80FF11DE35AFF4F2D
:1004D000F0820B8FEA89FB898081806207C0EE89F8
:1004E000FF896083E889F98980818064808381E065
:1004F00090E0DF91CF911F910F91FF90EF900895C1
:10050000CF93DF93EC01888D8823C1F0EA89FB89C2
:10051000808185FD05C0A889B9898C9186FD0EC0B2
:100520000FB607FCF5CF808185FFF2CFA889B98986
:100530008C9185FFEDCFCE017CDFE8CFDF91CF91AD
:10054000089590E0FC013197E231F10508F04EC0CA
:100550008827ED51FF4F8F4F0C94DE14809180005F
:100560008F7703C0809180008F7D809380000895F5
:1005700080918000877FF9CF84B58F7702C084B5E2
:100580008F7D84BD08958091B0008F7703C08091E6
:10059000B0008F7D8093B0000895809190008F7798
:1005A00007C0809190008F7D03C080919000877F6D
:1005B0008093900008958091A0008F7707C080916C
:1005C000A0008F7D03C08091A000877F8093A00052
:1005D0000895809120018F7707C0809120018F7D41
:1005E00003C080912001877F80932001089585EDCD
:1005F0008093BC008091BC0084FDFCCF109253041A
:10060000089540912D04262F30E0240F311D213212
:100610003105DCF4209153042430C9F4FC0180E05E
:1006200090E0861758F430912D042191DC01A55FEC
:10063000BB4FA30FB11D2C930196F3CF80912D04D6
:10064000680F60932D0480E0089581E0089582E0B2
:10065000089508958FEF9FEF08958FEF9FEF08950E
:1006600080910A0490E09195819591090895CF9326
:10067000DF931F921F92CDB7DEB7CB01642F498362
:100680005A83BFDF4981842F5A81952F0F900F9095
:10069000DF91CF910895CF93DF931F92CDB7DEB74F
:1006A000698361E0CE010196ACDF81E090E00F90BC
:1006B000DF91CF9108950E94E6141F920F920FB61A
:1006C0000F9211240BB60F922F933F934F935F938A
:1006D0006F937F938F939F93AF93BF93EF93FF930A
:1006E00085E894E0A6DEFF91EF91BF91AF919F91D5
:1006F0008F917F916F915F914F913F912F910F90CB
:100700000BBE0F900FBE0F901F9018951F920F9267
:100710000FB60F9211240BB60F922F933F934F9366
:100720005F936F937F938F939F93AF93BF93EF9359
:10073000FF9385E894E01BDEFF91EF91BF91AF91AD
:100740009F918F917F916F915F914F913F912F91E9
:100750000F900BBE0F900FBE0F901F9018951F9219
:100760000F920FB60F9211240BB60F922F933F9357
:100770004F935F936F937F938F939F93AF93BF93A9
:10078000EF93FF9382E295E054DEFF91EF91BF91EA
:10079000AF919F918F917F916F915F914F913F9119
:1007A0002F910F900BBE0F900FBE0F901F901895BA
:1007B0001F920F920FB60F9211240BB60F922F9328
:1007C0003F934F935F936F937F938F939F93AF93D9
:1007D000BF93EF93FF9382E295E0C9DDFF91EF9124
:1007E000BF91AF919F918F917F916F915F914F9149
:1007F0003F912F910F900BBE0F900FBE0F901F9047
:1008000018951F920F920FB60F9211240BB60F92EC
:100810002F933F934F935F936F937F938F939F9308
:10082000AF93BF93EF93FF938FEB95E002DEFF91C1
:10083000EF91BF91AF919F918F917F916F915F9158
:100840004F913F912F910F900BBE0F900FBE0F90C5
:100850001F9018951F920F920FB60F9211240BB68E
:100860000F922F933F934F935F936F937F938F9349
:100870009F93AF93BF93EF93FF938FEB95E077DD5B
:10088000FF91EF91BF91AF919F918F917F916F9168
:100890005F914F913F912F910F900BBE0F900FBE24
:1008A0000F901F901895CF93DF93282F30E0F90118
:1008B000EC53FD4F8491F901E258FD4FD491F901B9
:1008C000E85CFD4FC491CC2389F081113ADEEC2F16
:1008D000F0E0EE0FFF1FE25EFD4FA591B491EC91A9
:1008E000ED2381E090E021F480E002C080E090E020
:1008F000DF91CF910895862FD6CF1F93CF93DF93AB
:10090000282F30E0F901EC53FD4F8491F901E258B2
:10091000FD4FD491F901E85CFD4FC491CC23C1F0A7
:10092000162F81110EDEEC2FF0E0EE0FFF1FEC5FB3
:10093000FD4FA591B4918FB7F894111105C09C910A
:10094000ED2FE095E92302C0EC91ED2BEC938FBFE6
:10095000DF91CF911F910895862F642FCECFCF9333
:10096000DF9390E0FC01E258FD4F2491FC01E85C2C
:10097000FD4F8491882361F190E0880F991FFC015D
:10098000E651FE4FC591D491FC01EC5FFD4FA5915E
:10099000B491611109C09FB7F89488812095822392
:1009A0008883EC912E230BC0623061F49FB7F894DA
:1009B0003881822F809583238883EC912E2B2C9372
:1009C0009FBF06C08FB7F894E8812E2B28838FBF76
:1009D000DF91CF910895862F642FC1CF3FB7F89450
:1009E00080917E0490917F04A0918004B091810455
:1009F00026B5A89B05C02F3F19F00196A11DB11D7A
:100A00003FBFBA2FA92F982F8827820F911DA11DB4
:100A1000B11DBC01CD0142E0660F771F881F991FF1
:100A20004A95D1F708958F929F92AF92BF92CF923D
:100A3000DF92EF92FF926B017C01D0DF4B015C01F2
:100A4000C114D104E104F104E9F0C8DFDC01CB01F9
:100A500088199909AA09BB09883E9340A105B105E7
:100A600078F321E0C21AD108E108F10888EE880E77
:100A700083E0981EA11CB11CC114D104E104F1044F
:100A800021F7DECFFF90EF90DF90CF90BF90AF9037
:100A90009F908F90089585E894E0A4DC892B09F459
:100AA000BDC085E894E07CDC20916603309167034B
:100AB000F901E852FC4F80832F5F3F4F309367036B
:100AC0002093660365E070E080E090E0ACDF809109
:100AD000D803823C09F471C048F48E3A91F010F4C6
:100AE00083540BC0813B09F091C067C0853C08F47A
:100AF0008DC08C3C08F461C08D5C823008F086C0EB
:100B00005CC08091E4038D3009F048C09091D90316
:100B10008091DA03890F82559091DB03890F9091C0
:100B2000DC03890F9091DD03890F9091DE03890F1B
:100B30009091DF03890F9091E003890F9091E10379
:100B4000890F9091E203890F9091E30389131AC0F2
:100B500081E080939A038091660390916703A8E6F1
:100B6000B3E0E8EDF3E09F01285D3340821793077F
:100B700024F020812D931192F6CF109267031092EA
:100B800066030895E8EDF3E0119284E0EA30F80797
:100B9000D9F710926703109266037DCF80916603A8
:100BA000909167030D970CF476CFE8EDF3E0119286
:100BB00084E0EA30F807D9F7ECCF2091D90380918F
:100BC0006603909167032D30B1F4A8E6B3E0E8ED39
:100BD000F3E09F01285D33408217930724F02081C2
:100BE0002D931192F6CF109267031092660381E065
:100BF00080939A03089502970CF44DCFE8EDF3E04B
:100C0000119284E0EA30F807D9F7C3CFE8EDF3E0BA
:100C1000119284E0EA30F807D9F7BBCF089580E05D
:100C200090E0892B19F0FCDB811117C080E090E087
:100C3000892B19F0ECDB811113C080E090E0892B47
:100C400041F080E090E0892B21F00E9400008111AA
:100C50000AC0D4DB81110AC008950E940000E6CFCB
:100C60000E940000EACF0E940000F3CF14CF2FB7FC
:100C7000F89460917A0470917B0480917C04909147
:100C80007D042FBF08951F920F920FB60F9211246B
:100C90002F933F938F939F93AF93BF9380917A0449
:100CA00090917B04A0917C04B0917D0430917904F3
:100CB00023E0230F2D3720F40196A11DB11D05C09F
:100CC00026E8230F0296A11DB11D2093790480937D
:100CD0007A0490937B04A0937C04B0937D0480916C
:100CE0007E0490917F04A0918004B09181040196CC
:100CF000A11DB11D80937E0490937F04A093800476
:100D0000B0938104BF91AF919F918F913F912F91AB
:100D10000F900FBE0F901F9018951F920F920FB655
:100D20000F9211240BB60F922F933F934F935F9323
:100D30006F937F938F939F93AF93BF93EF93FF93A3
:100D4000E0E0F0E01995FF91EF91BF91AF919F9195
:100D50008F917F916F915F914F913F912F910F9064
:100D60000BBE0F900FBE0F901F9018951F920F9201
:100D70000FB60F9211240BB60F922F933F934F9300
:100D80005F936F937F938F939F93AF93BF93EF93F3
:100D9000FF938091B900887F803609F49CC068F584
:100DA000883209F45BC090F4803109F454C038F4FF
:100DB000882309F4F6C0883009F44DC0F5C08831A5
:100DC00009F44CC0803209F45DC0EEC0803409F4EF
:100DD00068C048F4803309F455C0883309F0E4C092
:100DE00080935204D8C0803509F44FC0883509F487
:100DF0005DC0883409F0D8C0D6C0883909F4C7C0AE
:100E0000A8F4883709F467C038F4883609F463C059
:100E1000803709F460C0C8C0883809F4B8C0803988
:100E200009F45FC0803809F0BFC05BC0803B09F4A3
:100E300086C038F4803A09F466C0883A09F47FC065
:100E4000B3C0803C09F4A7C0883C09F4A4C0883B27
:100E500009F48AC0A9C08091780410C090917704E9
:100E600080917604981770F5E091770481E08E0FF9
:100E700080937704F0E0EA5AFB4F80818093BB00B7
:100E800085EC86C0809352048EC0E091770481E0A7
:100E90008E0F809377048091BB00F0E0EA5AFB4FFD
:100EA000808390917704809176046EC0E0917704FE
:100EB00081E08E0F809377048091BB00F0E0EA5AC6
:100EC000FB4F80838091550481116DC081E0809338
:100ED000540484EA61C083E0809353041092510467
:100EE000CFCF80915104803208F051C0E09151047D
:100EF00081E08E0F809351048091BB00F0E0EF5CA5
:100F0000FB4F8083BDCF85EC8093BC0010925304CF
:100F100080915104803230F4E0915104F0E0EF5CB4
:100F2000FB4F10826091510470E0E0912F04F0912A
:100F3000300481E394E019951092510435C084E0A7
:100F40008093530410922E0410922D04E0912B04F0
:100F5000F0912C04199580912D04811105C081E038
:100F600080932D0410920B04E0912E0481E08E0FEB
:100F700080932E04F0E0E55FFB4F80818093BB00FF
:100F800090912E0480912D04981708F479CF85E86C
:100F90008093BC0009C085EC8093BC001092530480
:100FA00003C01092520423DBFF91EF91BF91AF91E8
:100FB0009F918F917F916F915F914F913F912F9171
:100FC0000F900BBE0F900FBE0F901F901895CF92F1
:100FD000DF92EF92FF926C0160E08DE08EDCE12CFD
:100FE000F12CC701B6011FDD61E08DE086DCC70191
:100FF000B601FF90EF90DF90CF9015CD61E087E1D3
:101000007CDC61E088E079DC61E088E176DC61E04D
:1010100089E173DC61E08AE170DC61E08DE16DDC27
:1010200061E08CE16ADC61E08FE167DC61E08BE12B
:1010300064CC81E090E090935C0280935B0290939B
:1010400064028093630290936202809361029093A2
:10105000600280935F0290935E0280935D029093A2
:101060005A02809359029093580280935702089530
:10107000CF93DF93EC0161E085E33FDC43E050E098
:10108000BE0185E894E03ED06DE085E894E0F2D9B9
:101090008881E2E8F4E08083898181838A81828388
:1010A00065E070E080E090E0BEDC60E085E325DC98
:1010B00065E070E080E090E0DF91CF91B4CC96E005
:1010C000899FD0011124A45AB94F90967C936E93B6
:1010D0005F9791E091969C9391979091C806E091CB
:1010E000C906F091CA06992339F0309751F0811161
:1010F00008C08091780604C0309719F05C968C91F6
:1011000019940895CF92DF92EF92FF920F931F935D
:10111000CF93DF936C017A018B01C0E0D0E0CE1554
:10112000DF0589F0D8016D918D01D601ED91FC911B
:101130000190F081E02DC6011995892B11F47E01F3
:1011400002C02196ECCFC701DF91CF911F910F9183
:10115000FF90EF90DF90CF900895009761F0FC0131
:1011600001900020E9F73197AF01481B590BBC01F2
:101170008FEB95E0C7CF80E090E00895CF93DF93A9
:10118000ECDFEC0185E593E0E8DF8C0F9D1FDF913C
:10119000CF9108950F931F93CF93DF93EC0102E05B
:1011A00010E061E085E3A9DB43E050E0BE0185E8A3
:1011B00094E0A8DF6DE085E894E05CD988818093B5
:1011C00082048981809383048A818093840465E00A
:1011D00070E080E090E027DC60E085E38EDB65E096
:1011E00070E080E090E01FDC0130110519F001E0B3
:1011F00010E0D7CFDF91CF911F910F9108950F93FA
:101200001F93CF93DF93C82FD62F86E0C89FF0019E
:101210001124E45AF94F11A2878D90A181309105D4
:10122000E1F01CF4892B49F03FC08230910591F127
:101230000397D1F560E070E031C06623A9F161E069
:1012400070E08C2F3CDF13DD6093B4067093B5061D
:101250008093B6069093B70627C009DD0091B406C7
:101260001091B5062091B6063091B706AB01BC01CE
:10127000401B510B620B730B8091C6069091C70601
:10128000A0E0B0E084179507A607B70718F462E05E
:1012900070E004C0D11108C063E070E08C2FDF91D2
:1012A000CF911F910F910BCFDF91CF911F910F9194
:1012B0000895CF93DF93CDB7DEB7A5970FB6F89417
:1012C000DEBF0FBECDBF789484B5826084BD84B587
:1012D000816084BD85B5826085BD85B5816085BD31
:1012E00080916E00816080936E00109281008091E9
:1012F0008100826080938100809181008160809371
:101300008100809180008160809380008091B10095
:1013100084608093B1008091B00081608093B000C0
:101320008091910082608093910080919100816012
:1013300080939100809190008160809390008091D3
:10134000A10082608093A1008091A10081608093C0
:10135000A1008091A00081608093A0008091210174
:10136000826080932101809121018160809321011D
:101370008091200181608093200180917A008460B7
:1013800080937A0080917A00826080937A008091C5
:101390007A00816080937A0080917A0080688093DF
:1013A0007A001092C100E091CF05F091D00522E0C3
:1013B0002083E091CB05F091CC051082E091CD0522
:1013C000F091CE058FEC80831092D705E091D30584
:1013D000F091D40596E09083E091D105F091D2058B
:1013E000808180618083E091D105F091D205808178
:1013F00088608083E091D105F091D205808180687A
:101400008083E091D105F091D20580818F7D80832A
:10141000E0919504F09196042083E0919104F0917D
:1014200092041082E0919304F091940487E6808303
:1014300010929D04E0919904F0919A049083E091B8
:101440009704F0919804808180618083E0919704F3
:10145000F0919804808188608083E0919704F091F6
:101460009804808180688083E0919704F0919804CB
:1014700080818F7D808361E087E171DA61E087E1BF
:101480003CDA61E088E06BDA61E088E036DA61E05E
:1014900088E165DA61E088E130DA61E089E15FDA0C
:1014A00061E089E12ADA61E08DE159DA61E08DE1FC
:1014B00024DA61E08BE153DA61E08BE11EDA61E06E
:1014C00085E34DDA60E085E318DA61E08DE047DA24
:1014D00061E08DE012DA60E085E241DA6F9882E047
:1014E00092E0C6DD88E592E09093C7068093C60639
:1014F00084E690E09093C5068093C40681E090E076
:101500009093010280930002812C912C54018394CA
:10151000EE24E394F12CFAE04F2E512C612C712C27
:1015200080919B0390919C03803325E7920718F1EB
:1015300010929C0310929B0385E092E099DD8091CC
:10154000D103882359F065E070E080E090E06BDA29
:1015500080E592E08DDD82EB92E010DE8091D30396
:101560009091D4038330910558F401969093D4035D
:101570008093D30305C0019690939C0380939B03B3
:1015800076DB0091B8061091B9062091BA06309129
:10159000BB06AB01BC01401B510B620B730B80916E
:1015A000C4069091C506A0E0B0E084179507A60791
:1015B000B70728F08091D7038111CCC667C610E029
:1015C0008091C206181758F4E091BE06F091BF064C
:1015D000E10FF11D62E08081C2D91F5FF1CF312C94
:1015E0008091C306381608F064C0032D10E0E09126
:1015F000C006F091C106E00FF11F61E08081AFD914
:10160000E091C006F091C106E00FF11F60E080811B
:1016100074D9D501C401032C04C0880F991FAA1FD7
:10162000BB1F0A94D2F7AC019C0120953095212C68
:101630008091C206281640F5C22CD12C8091BE069E
:101640009091BF06FC01EC0DFD1D80812CA33DA3F4
:101650004AA35BA328D9F60134962CA13DA14AA147
:101660005BA1EE0FFF1FE45AF94F892B29F480810B
:101670009181842B952B04C08081918182239323B7
:10168000918380832394D4CFE091C006F091C1066A
:10169000E00FF11F61E0808130D98091C006909108
:1016A000C106FC01E00FF11F60E0808158D933943E
:1016B00097CF08E716E0F8018FEF9FEF2381348181
:1016C000232B21F41082928381831582369636E093
:1016D000E43BF30799F7C12C8091C206C81608F0C5
:1016E00057C0D12C2C2C312CC101880F991FFC0123
:1016F000EC59F94F1F012091C306D21608F046C0DD
:10170000D1016D917C910D2C02C0769567950A945C
:10171000E2F761707727C29E900111242D0D311DD3
:10172000E091BC06F091BD06E20FF31FA081ECE54D
:10173000F6E080E0458D568D4217530711F4617035
:101740001CC08F5F36968A30A9F7672BE9F0E8E76F
:10175000F6E080E090E04081411111C0B6E0B89F12
:10176000A001B99F500D1124FA01E45AF94FA48F3A
:10177000368F258F10A2178E61E041DD05C00196DE
:1017800036968A30910539F7D394B5CFC394A4CF58
:1017900080E090E0D12CFC01E45AF94F21A12223F2
:1017A00011F0DD24D39406968C339105A1F75FDA0E
:1017B0006093B8067093B9068093BA069093BB06FF
:1017C000DD2009F4F7CEDD24D394D80115968C9151
:1017D0001597882309F452C513968D919C911497FF
:1017E0008230910509F465C38330910509F40CC476
:1017F000019709F043C5D092B703EC918E2FEE0FFD
:10180000990BAA0BBB0BFC01E154F109E631F10580
:1018100008F034C58827EE58FF4F8F4F0C94DE1424
:101820008091D703882309F429C58091560281113C
:1018300025C58091B603811134C08091B503811113
:1018400030C08091B40381112CC08091B303811109
:1018500028C08091B203811124C08091B10381110D
:1018600020C08091B00381111CC08091AF03811111
:1018700018C08091AE03811114C08091AD03811115
:1018800010C08091AC0381110CC08DE492E0F0DBBC
:10189000D092D2031092B703D092D60384E690E0A0
:1018A00096DB89EB92E003C38091D703882309F488
:1018B000E5C480915602882309F4E0C48091B60300
:1018C000811136C08091B503811132C08091B4037B
:1018D00081112EC08091B30381112AC08091B2037F
:1018E000811126C08091B103811122C08091B00383
:1018F00081111EC08091AF0381111AC08091AE0387
:10190000811116C08091AD03811112C08091AC038A
:1019100081110EC08AE492E0ABDBD092D203109228
:1019200056021092B703D092D50384E690E04FDBC5
:1019300087EB92E0BCC28091D703882309F49EC450
:1019400080915602882309F499C48091B2038111D1
:101950002DC08091B103811129C08091B003811104
:1019600025C08091AF03811121C08091AE03811108
:101970001DC08091AD03811119C08091D5038111E3
:1019800015C08091D603811111C08091AC038111E3
:101990000DC08091D003811109C087E492E068DB1B
:1019A00048DBD092B50384E690E011DB8EEB92E049
:1019B0007EC28091D703882309F460C480915602C7
:1019C000882309F45BC48091B203811129C08091FE
:1019D000B103811125C08091B003811121C0809194
:1019E000AF0381111DC08091AE03811119C0809198
:1019F000AD03811115C08091D503811111C0809173
:101A0000D60381110DC08091AC03811109C084E41B
:101A100092E02EDB0EDBD092B60384E690E0D7DABC
:101A200084EC92E044C28091D703882309F426C451
:101A300080915602882309F421C48091B603811154
:101A400031C08091B50381112DC08091B403811103
:101A500029C08091B303811125C08091B003811109
:101A600021C08091AF0381111DC08091AE0381110F
:101A700019C08091AD03811115C08091D5038111EA
:101A800011C08091D60381110DC08091AC038111EA
:101A900009C081E492E0ECDAD092B203CADA84E6BB
:101AA00090E095DA8DEC92E002C28091D703882312
:101AB00009F4E4C380915602882309F4DFC38091BE
:101AC000B603811131C08091B50381112DC0809181
:101AD000B403811129C08091B303811125C0809185
:101AE000B003811121C08091AF0381111DC080918D
:101AF000AE03811119C08091AD03811115C0809191
:101B0000D503811111C08091D60381110DC0809140
:101B1000AC03811109C08EE392E0AADAD092B1033E
:101B200088DA84E690E053DA87ED92E0C0C18091D4
:101B3000D703882309F4A2C380915602882309F4AD
:101B40009DC38091B203811129C08091B10381119D
:101B500025C08091B003811121C08091AF03811114
:101B60001DC08091AE03811119C08091AD03811118
:101B700015C08091D503811111C08091D6038111C8
:101B80000DC08091AC03811109C08BE392E070DA43
:101B900050DAD092B30384E690E019DA83EE92E053
:101BA00086C18091D703882309F468C380915602C7
:101BB000882309F463C38091B20381112DC0809101
:101BC000B103811129C08091B003811125C080919A
:101BD000AF03811121C08091AE0381111DC080919E
:101BE000AD03811119C08091D503811115C0809179
:101BF000D603811111C08091AC0381110DC0809179
:101C0000A703811109C088E392E032DA12DAD09298
:101C1000B40384E690E0DBD98DEE92E048C1809178
:101C2000D703882309F42AC380915602882309F434
:101C300025C38091CE038111DEC18091B60381114D
:101C4000DAC18091B5038111D6C18091B4038111AD
:101C5000D2C18091B30381112AC08091B203811156
:101C600026C08091B103811122C08091B0038111FF
:101C70001EC08091AF0381111AC08091D5038111DC
:101C800016C08091D603811112C08091AC038111DE
:101C90000EC08091A60381110AC085E392E0E8D9C5
:101CA000D092AE03D092A50388EF92E073C08091EA
:101CB000B3038111A0C18091B20381119CC18091B5
:101CC000B103811198C18091B003811194C18091B9
:101CD000AF03811190C18091D50381118CC1809196
:101CE000D603811188C18091AC03811184C1809198
:101CF000A603882309F47FC182E392E0B9D980E08A
:101D000093E03CDA1092A60394D984E690E05FD980
:101D100072C18091D703882309F4B0C28091560222
:101D2000882309F4ABC28091CD03811164C18091F5
:101D3000B603811160C18091B50381115CC18091AE
:101D4000B403811158C18091B303811154C18091B2
:101D5000B203811150C18091B10381114CC18091B6
:101D6000B003811148C18091AF03811144C18091BA
:101D7000D503811140C18091D60381113CC180916E
:101D8000AC03811138C18FE292E072D9D092AD03D9
:101D90008AE093E0F3D9B8CF8091D703882309F480
:101DA0006DC280915602882309F468C28091CC03E9
:101DB000811135C08091B60381112BC08091B5038C
:101DC000811127C08091B403811123C08091B30396
:101DD00081111FC08091B20381111BC08091B1039A
:101DE000811117C08091AE03811113C08091AD03A2
:101DF00081110FC08091D50381110BC08091D60352
:101E0000811107C08091AC03811103C08CE292E084
:101E10002FD9D092B0030DD984E690E0D8D884E1D0
:101E200093E045C08091D703882309F427C28091AD
:101E30005602882309F422C28091CB03811135C058
:101E40008091B60381112BC08091B503811127C009
:101E50008091B403811123C08091B30381111FC00D
:101E60008091B20381111BC08091B103811117C011
:101E70008091AE03811113C08091AD0381110FC019
:101E80008091D50381110BC08091D603811107C0C9
:101E90008091AC03811103C089E292E0E9D8D0922D
:101EA000AF03C7D884E690E092D880E293E066D989
:101EB000A2C0D092A403D801EC918E2FEE0F990B03
:101EC000AA0BBB0BFC01E654F109E431F10508F063
:101ED000D5C18827E857FF4F8F4F70C59091D70322
:101EE00080915602992309F480C0882309F4C6C161
:101EF0001092A8031092A9031092AA031092AB03A8
:101F000084E690E064D880915B0290915C02019736
:101F100009F0B4C18091B6038111B0C18091B503BD
:101F20008111ACC18091B4038111A8C18091B30328
:101F30008111A4C18091B2038111A0C18091B1032C
:101F400081119CC18091B003811198C18091AF0330
:101F5000811194C18091D503811190C18091D603E4
:101F600081118CC18091AE03811188C18091AD0334
:101F7000811184C186E292E07BD88CE293E0FED8A6
:101F80001092D103D092AC0361E08FE10E947D04F6
:101F90001092D0031092CF031092A7031092A303C4
:101FA0001092CE031092CD031092A2031092A103BF
:101FB0001092CC031092CB03F0926402E092630281
:101FC000F0926202E0926102F0926002E0925F029F
:101FD000F0925E02E0925D02F0925A02E0925902A3
:101FE000F0925802E092570249C1882309F446C191
:101FF000D092A60343C11092A8031092A903109295
:10200000AA031092AB033AC11092A4031092B70333
:10201000D801EC918E2FEE0F990BAA0BBB0BFC0194
:10202000F197E632F10508F029C18827E456FF4F01
:102030008F4FC4C48091D703882309F41FC18091B6
:10204000AC0381111BC180915602882309F416C18B
:102050001092A8031092A9031092AA031092AB0346
:102060001092B50318C08091D703882309F406C1E4
:102070008091AC03811102C180915602882309F43A
:10208000FDC01092A8031092A9031092AA03109207
:10209000AB031092B60383E292E0EEC08091D703C7
:1020A000882309F4EBC08091AC038111E7C08091D3
:1020B0005602882309F4E2C01092B2031092B103D1
:1020C0001092A8031092A9031092AA031092AB03D6
:1020D00080E292E0D1C08091D703882309F4CEC07A
:1020E0008091AC038111CAC080915602882309F403
:1020F000C5C01092A8031092A9031092AA031092CF
:10210000AB031092B30318C08091D703882309F45E
:10211000B5C08091AC038111B1C080915602882373
:1021200009F4ACC01092A8031092A9031092AA035C
:102130001092AB031092B4038DE192E09DC08091A8
:10214000D703882309F49AC08091AC03811196C00B
:1021500080915602882309F491C01092A80310922E
:10216000A9031092AA031092AB038AE192E012D85D
:102170001092AE031092AD03D092A5030E94EE041C
:1021800060939D0370939E0380939F039093A0039D
:1021900075C08091D703882309F470C01092A803FA
:1021A0001092A9031092AA031092AB0387E192E068
:1021B00063C08091D703882309F460C01092A803FC
:1021C0001092A9031092AA031092AB0384E192E04B
:1021D00053C08091D703882309F450C01092A803FC
:1021E0001092A9031092AA031092AB0381E192E02E
:1021F00043C08091D703882309F440C08091AC0389
:1022000081113CC0809156028823C1F11092A8032D
:102210001092A9031092AA031092AB038EE092E0F1
:102220000E94CA081092B0031092AF0327C0809199
:10223000D703882319F1809156028823F9F0109270
:10224000A8031092A9031092AA031092AB038BE08B
:1022500092E00E94CA081092AC0310C08091D7038C
:10226000882361F01092A8031092A9031092AA0388
:102270001092AB0388E092E00E94CA080A5F1F4FE9
:10228000B6E0043B1B0709F0A0CA94C985E20E948E
:102290005304892B09F05EC04091BC035091BD03EB
:1022A0006091BE037091BF038091B8039091B90310
:1022B000A091BA03B091BB03443F51406105710541
:1022C00060F1883EE3E09E07A105B10530F1109270
:1022D000B8031092B9031092BA031092BB03109284
:1022E000BC031092BD031092BE031092BF0381E0A5
:1022F0008093D7038093C20360E087E10E947D044E
:1023000080E592E00E94380882E393E00E94BE08D4
:1023100084E690E00E94E7070BC00196A11DB11D65
:102320008093B8039093B903A093BA03B093BB030F
:102330002091D7038091C7039091C803A091C9034E
:10234000B091CA03222319F0679B20C0D7C1679BB5
:1023500060C0D4C11092B8031092B9031092BA03AE
:102360001092BB038091BC039091BD03A091BE036A
:10237000B091BF030196A11DB11D8093BC03909342
:10238000BD03A093BE03B093BF03D2CF4091C3035C
:102390005091C4036091C5037091C603843F91407E
:1023A000A105B10548F1483EF3E05F0761057105FD
:1023B00018F11092C3031092C4031092C503109237
:1023C000C6031092C7031092C8031092C90310925B
:1023D000CA031092D7031092C2038BE393E00E94CA
:1023E000BE080E94FE0784E690E00E94E70783E5AE
:1023F00092E00E9438084BC04F5F5F4F6F4F7F4F96
:102400004093C3035093C4036093C5037093C60302
:102410003EC0843F9140A105B105C8F18091C3033E
:102420009091C403A091C503B091C603883E934028
:10243000A105B10560F18091C0039091C10301969F
:102440009093C1038093C00385E493E00E94AD089C
:102450002091C0033091C10340E050E019A28E01E9
:102460000F5D1F4FCA01B901A301920185D2605DC2
:10247000D8016E938D01211531054105510591F764
:10248000CD010E94AD0885E593E00E94AD088091E2
:102490009A03882309F42EC1E09168038E2F90E0FF
:1024A000FC01EE5AF109E132F10508F017C1882765
:1024B000EE53FF4F8F4F82C280916302909164026E
:1024C000892B09F40BC1109264021092630280916F
:1024D000D703882309F402C170C0809161029091F2
:1024E0006202892B09F4FAC0109262021092610212
:1024F000EECF80915F0290916002892B09F4EEC0CB
:102500001092600210925F02E2CF80915D02909182
:102510005E02892B09F4E2C010925E0210925D0205
:10252000D6CF80915B0290915C02892B09F4D6C0D2
:1025300010925C0210925B0288E593E00E94BE0854
:10254000C6CF8091590290915A02892B09F4C6C0D6
:1025500010925A0210925902BACF8091570290916C
:102560005802892B09F4BAC01092580210925702EF
:10257000AECF81E0809356028091D703882309F47F
:10258000ADC060E08BE10E947D0461E08DE10E94BE
:102590007D041092D60311C0109256028091D70389
:1025A000882309F49BC061E08BE10E947D0460E018
:1025B0008DE10E947D041092D50388EE93E08CC0DB
:1025C0001092D4031092D3031092D2038091D703B8
:1025D000811184C00E94FE0781C08091D7038823A7
:1025E00009F47CC080916A03803211F460E003C07A
:1025F000813221F461E089E10E947D0480916B03C6
:10260000833279F020F48232E9F460E012C084323F
:1026100051F08632B9F461E088E00E947D0460E008
:102620000EC061E006C060E088E00E947D0461E0C9
:1026300006C088E10E947D0461E088E001C088E175
:102640000E947D0480916C03863C61F460E08BE124
:102650000E947D0461E08DE10E947D0481E0809311
:1026600056020CC0873C51F461E08BE10E947D046E
:1026700060E08DE10E947D0410925602109170037B
:10268000112351F001E00093D10360E08FE10E943B
:102690007D0411FD14C015C01092D10361E08FE1DB
:1026A0000E947D041092D0031092CF031092CE03AB
:1026B0001092CD031092CC031092CB030FC0009365
:1026C000CC0312FD2FC013FD31C014FD33C015FD26
:1026D00035C004C088EC90E00E94E70710929A038E
:1026E00010926703109266036AE070E080E090E069
:1026F0000E9413050E940F060C94900A1092C303C7
:102700001092C4031092C5031092C6030196A11D36
:10271000B11D8093C7039093C803A093C903B093DE
:10272000CA03B5CE81E08093D003CDCF81E0809302
:10273000CF03CBCF81E08093CD03C9CF81E08093DD
:10274000CE03CCCF109288041092870488EE93E0D9
:10275000A0E0B0E08093890490938A04A0938B0456
:10276000B0938C042CE832E03093860420938504E7
:1027700045E351E0509392044093910444E351E0C7
:10278000509394044093930440E351E05093960493
:102790004093950441E351E050939804409397048B
:1027A00042E351E050939A044093990446E351E088
:1027B00050939C0440939B0410929E0410929F049B
:1027C0001092A0041092A1041092250510922405E5
:1027D0008093260590932705A0932805B09329059B
:1027E00030932305209322054DEC50E050932F05A4
:1027F00040932E054CEC50E050933105409330054A
:1028000048EC50E0509333054093320549EC50E0DA
:1028100050933505409334054AEC50E0509337050A
:10282000409336054EEC50E05093390540933805FF
:1028300010923B0510923C0510923D0510923E050A
:102840001092C2051092C1058093C3059093C405F0
:10285000A093C505B093C6053093C0052093BF056E
:1028600025EC30E03093CC052093CB0524EC30E010
:102870003093CE052093CD0520EC30E03093D00589
:102880002093CF0521EC30E03093D2052093D10581
:1028900022EC30E03093D4052093D30526EC30E0D1
:1028A0003093D6052093D5051092D8051092D905FE
:1028B0001092DA051092DB051092CE061092CD062A
:1028C0008093CF069093D006A093D106B093D20602
:1028D0008CE992E09093CC068093CB0610925E0632
:1028E0001092620610926106109263068CEA92E0E2
:1028F00090935D0680935C0680E090E0FC01E45AD2
:10290000F94F148E10A2178E11A206968C339105E2
:10291000A9F788E692E09093BF068093BE0685E60D
:1029200092E09093C1068093C00688E08093C2062F
:1029300083E08093C30680E792E09093BD06809386
:10294000BC068AE090E09093C5068093C40684EFAD
:1029500091E09093C7068093C6061092CA06109223
:10296000C9061092B8061092B9061092BA061092D3
:10297000BB061092C8060895A1E21A2EAA1BBB1B23
:10298000FD010DC0AA1FBB1FEE1FFF1FA217B3073B
:10299000E407F50720F0A21BB30BE40BF50B661F51
:1029A000771F881F991F1A9469F760957095809515
:1029B00090959B01AC01BD01CF010895EE0FFF1F63
:1029C000881F8BBF0790F691E02D199481E090E06D
:0829D000F89400C0F894FFCF59
:1029D8000100A643E9AE49F7ADDF8CACDF8BA7DF7A
:1029E80086AADF89A5DF84A4DF83A3DF82A2DF8133
:1029F800A1DF80A0DF7FACDD89A7D178A7D077A33E
:102A0800D174B5DA8FA3D073A2D173A2D072A1D139
:102A180072A1D071A0D171A0D070B0D181B0D08096
:102A2800AE42F0AE4AF801010001000100010001C8
:102A38000001000100222120302F2E2D2C2B2A24CA
:102A48004142434445464748494A4B4C4D4E4F50F6
:102A58005152535455565859000000003A02820802
:102A6800F201D001E4018002000000004B033703AB
:102A780030032D032A03290300000000EB04AC04F3
:102A88007B043132333400554E4C4F434B00545283
:102A9800454E44005452454E445245560048454917
:102AA8004748545F5550004845494748545F444F8C
:102AB800574E0054494C545F4C4546540054494CB9
:102AC800545F5249474854004241434B5F555000B8
:102AD8004175746F5F4D6F7665004241434B5F44AB
:102AE8004F574E00534C4944494E475F46574400A0
:102AF800534C4944494E475F425744004C4556455C
:102B08004C00506F776572206F6E00506F7765725A
:102B1800206F666600636F756E74506F7765724FCD
:102B280046463A20000D0A004C4556454C20466959
:062B38006E6973680000E5
:00000001FF
