:1000000085C10000B4C10000B2C10000B0C1000051
:10001000AEC10000ACC10000AAC10000A8C1000030
:10002000A6C10000A4C10000A2C10000A0C1000040
:100030009EC100009CC100009AC1000098C1000050
:1000400096C1000094C1000092C1000090C1000060
:100050008EC100008CC100008AC1000015C60000DE
:1000600086C10000F8C30000CDC3000080C10000BD
:100070007EC100007CC100007AC1000078C1000090
:1000800076C1000074C1000072C1000047C60000C4
:1000900090C3000065C300006AC1000068C600008C
:1000A00066C1000064C1000062C1000060C10000C0
:1000B0005EC100005CC100005AC1000058C10000D0
:1000C00056C1000054C1000052C1000050C10000E0
:1000D0004EC100004CC100001AC30000EFC2000076
:1000E00046C10000A30C610F8D115F0C8D11280D0E
:1000F0008D118D11620D8D118D11200EEA0C8D1157
:100100005E0EA40D8D111B0FE60D8D118D11D80EF5
:100110004A108D114A104A108D11BD0F4A104A1015
:100120008D114A104A108D118D114A108D118D11AB
:100130004A108D118D114A1018111811281128110B
:100140008D118D118D118D118D118D118D118D11BF
:100150008D118D118D118D118D1148117D118D1104
:10016000381182108D118D119D107D116611D310E3
:1001700069108D11EE109D108D114811BA108D115E
:100180003811EE104313C413C413C013C413C413A3
:10019000C413C413C413C413C413C413C413C413A7
:1001A000C413C413C413C413C413C4130313C41358
:1001B000C41336130F132213CF12DB12B212C31261
:1001C000C413E712F712BD02C002AF02B302B902B4
:1001D000F702C402C802CE02D202D602DC02E0025A
:1001E000E402F702EA02EE02F2020000210024001B
:1001F00027002A002D003000330001010000040117
:1002000007010A0100002200250028002B002E0013
:100210003100340002010000050108010B0100005B
:1002200020002300260029002C002F0032000001AE
:100230000000030106010901050505050705080879
:100240000808020202020A0A080804040404010160
:100250000101010101010303030303030303040775
:1002600007070C0C0C0C0C0C0C0C0202020206060C
:100270000606060606060B0B0B0B0B0B0B0B0102FF
:1002800010202008081020401020408002010201A8
:100290000804020101020408102040808040201060
:1002A00008040201800402018040201008040201B9
:1002B0000804020101020408102040800102040821
:1002C0001020408000000A0B02090C0D0E080703E5
:1002D0000401000000000000000000000000000019
:1002E000000000000000000000000000000000000E
:1002F00012111000000000000000000000000000CB
:1003000000000000000000000000F81311241FBED0
:10031000CFEFD1E2DEBFCDBF00E00CBF13E0A0E025
:10032000B2E0E4ECFAE200E00BBF02C007900D92ED
:10033000A437B107D9F727E0A4E7B3E001C01D92C5
:10034000AD32B207E1F711E0C6E8D1E000E006C047
:1003500021970109802FFE010E943215C538D1076F
:1003600080E00807A9F70E94CA090C94601548CEDE
:10037000FC01A089B1898C91A689B78982FD0FC043
:100380009C91818D8F5F8F73228D821749F0218D13
:10039000DF01A20FB11D5D969C93818F08958C9112
:1003A0000895FC01918D828D981761F0828DDF0197
:1003B000A80FB11D5D968C91928D9F5F9F73928F58
:1003C00090E008958FEF9FEF0895FC01918D828D4D
:1003D000981731F0828DE80FF11D858D90E008951A
:1003E0008FEF9FEF0895FC01918D228D892F90E072
:1003F000805C9F4F821B91098F739927089583E931
:1004000094E0F1DF21E0892B09F420E0822F0895A8
:1004100080E395E0E8DF21E0892B09F420E0822FDA
:1004200008958DEC95E0DFDF21E0892B09F420E0D1
:10043000822F0895FC01848DDF01A80FB11DA35AFE
:10044000BF4F2C91848D90E001968F739927848FF4
:10045000A689B7892C93A089B1898C9180648C93EB
:10046000938D848D981306C00288F389E02D8081D6
:100470008F7D80830895EF92FF920F931F93CF9308
:10048000DF93EC0181E0888F9B8D8C8D981305C0E4
:10049000E889F989808185FD23C0F62E0B8D10E057
:1004A0000F5F1F4F0F731127E02E8C8DE8120BC0CA
:1004B0000FB607FCFACFE889F989808185FFF5CF6F
:1004C000CE01B8DFF2CF8B8DFE01E80FF11DE35AAC
:1004D000FF4FF0820B8FEA89FB898081806207C021
:1004E000EE89FF896083E889F9898081806480834F
:1004F00081E090E0DF91CF911F910F91FF90EF90FD
:100500000895CF93DF93EC01888D8823C1F0EA89A9
:10051000FB89808185FD05C0A889B9898C9186FDFC
:100520000EC00FB607FCF5CF808185FFF2CFA889FA
:10053000B9898C9185FFEDCFCE017CDFE8CFDF91CB
:10054000CF91089590E0FC013197E231F10508F078
:100550004EC08827ED51FF4F8F4F0C94321580917C
:1005600080008F7703C0809180008F7D8093800012
:10057000089580918000877FF9CF84B58F7702C07E
:1005800084B58F7D84BD08958091B0008F7703C0BE
:100590008091B0008F7D8093B0000895809190008D
:1005A0008F7707C0809190008F7D03C0809190006D
:1005B000877F8093900008958091A0008F7707C077
:1005C0008091A0008F7D03C08091A000877F8093E1
:1005D000A0000895809120018F7707C080912001AD
:1005E0008F7D03C080912001877F80932001089533
:1005F00085ED8093BC008091BC0084FDFCCF1092FF
:100600006104089540913B04262F30E0240F311DF2
:1006100021323105DCF4209161042430C9F4FC015D
:1006200080E090E0861758F430913B042191DC0182
:10063000A75EBB4FA30FB11D2C930196F3CF809102
:100640003B04680F60933B0480E0089581E00895C7
:1006500082E0089508958FEF9FEF08958FEF9FEF49
:1006600008958091180490E09195819591090895DD
:10067000CF93DF931F921F92CDB7DEB7CB01642FCC
:1006800049835A83BFDF4981842F5A81952F0F9068
:100690000F90DF91CF910895CF93DF931F92CDB745
:1006A000DEB7698361E0CE010196ACDF81E090E0C6
:1006B0000F90DF91CF9108950E943A151F920F92EB
:1006C0000FB60F9211240BB60F922F933F934F93B7
:1006D0005F936F937F938F939F93AF93BF93EF93AA
:1006E000FF9383E994E0A6DEFF91EF91BF91AF9174
:1006F0009F918F917F916F915F914F913F912F913A
:100700000F900BBE0F900FBE0F901F9018951F9269
:100710000F920FB60F9211240BB60F922F933F93A7
:100720004F935F936F937F938F939F93AF93BF93F9
:10073000EF93FF9383E994E01BDEFF91EF91BF916C
:10074000AF919F918F917F916F915F914F913F9169
:100750002F910F900BBE0F900FBE0F901F9018950A
:100760001F920F920FB60F9211240BB60F922F9378
:100770003F934F935F936F937F938F939F93AF9329
:10078000BF93EF93FF9380E395E054DEFF91EF91E9
:10079000BF91AF919F918F917F916F915F914F9199
:1007A0003F912F910F900BBE0F900FBE0F901F9097
:1007B00018951F920F920FB60F9211240BB60F923D
:1007C0002F933F934F935F936F937F938F939F9359
:1007D000AF93BF93EF93FF9380E395E0C9DDFF9163
:1007E000EF91BF91AF919F918F917F916F915F91A9
:1007F0004F913F912F910F900BBE0F900FBE0F9016
:100800001F9018951F920F920FB60F9211240BB6DE
:100810000F922F933F934F935F936F937F938F9399
:100820009F93AF93BF93EF93FF938DEC95E002DE20
:10083000FF91EF91BF91AF919F918F917F916F91B8
:100840005F914F913F912F910F900BBE0F900FBE74
:100850000F901F9018951F920F920FB60F921124B0
:100860000BB60F922F933F934F935F936F937F93AA
:100870008F939F93AF93BF93EF93FF938DEC95E08E
:1008800077DDFF91EF91BF91AF919F918F917F9114
:100890006F915F914F913F912F910F900BBE0F90F1
:1008A0000FBE0F901F901895CF93DF93282F30E045
:1008B000F901EC53FD4F8491F901E258FD4FD491B9
:1008C000F901E85CFD4FC491CC2389F081113ADE37
:1008D000EC2FF0E0EE0FFF1FE25EFD4FA591B4910B
:1008E000EC91ED2381E090E021F480E002C080E013
:1008F00090E0DF91CF910895862FD6CF1F93CF93AD
:10090000DF93282F30E0F901EC53FD4F8491F9017A
:10091000E258FD4FD491F901E85CFD4FC491CC231E
:10092000C1F0162F81110EDEEC2FF0E0EE0FFF1F4D
:10093000EC5FFD4FA591B4918FB7F894111105C0EC
:100940009C91ED2FE095E92302C0EC91ED2BEC9307
:100950008FBFDF91CF911F910895862F642FCECF47
:10096000CF93DF9390E0FC01E258FD4F2491FC010E
:10097000E85CFD4F8491882361F190E0880F991F16
:10098000FC01E651FE4FC591D491FC01EC5FFD4F97
:10099000A591B491611109C09FB7F8948881209501
:1009A00082238883EC912E230BC0623061F49FB7C1
:1009B000F8943881822F809583238883EC912E2BA5
:1009C0002C939FBF06C08FB7F894E8812E2B288305
:1009D0008FBFDF91CF910895862F642FC1CF3FB78E
:1009E000F89480918C0490918D04A0918E04B09124
:1009F0008F0426B5A89B05C02F3F19F00196A11DB5
:100A0000B11D3FBFBA2FA92F982F8827820F911DA4
:100A1000A11DB11DBC01CD0142E0660F771F881FEB
:100A2000991F4A95D1F708958F929F92AF92BF92E6
:100A3000CF92DF92EF92FF926B017C01D0DF4B01EE
:100A40005C01C114D104E104F104E9F0C8DFDC0168
:100A5000CB0188199909AA09BB09883E9340A105D1
:100A6000B10578F321E0C21AD108E108F10888EE57
:100A7000880E83E0981EA11CB11CC114D104E104AE
:100A8000F10421F7DECFFF90EF90DF90CF90BF9081
:100A9000AF909F908F90089583E994E0A4DC892B18
:100AA00009F4BDC083E994E07CDC209174033091AB
:100AB0007503F901EA51FC4F80832F5F3F4F30935C
:100AC00075032093740365E070E080E090E0ACDF94
:100AD0008091E603823C09F471C048F48E3A91F0AB
:100AE00010F483540BC0813B09F091C067C0853C72
:100AF00008F48DC08C3C08F461C08D5C823008F035
:100B000086C05CC08091F2038D3009F048C090919E
:100B1000E7038091E803890F82559091E903890FDB
:100B20009091EA03890F9091EB03890F9091EC0368
:100B3000890F9091ED03890F9091EE03890F9091A9
:100B4000EF03890F9091F003890F9091F1038913BE
:100B50001AC081E08093A80380917403909175037B
:100B6000A6E7B3E0E6EEF3E09F01265E334082178E
:100B7000930724F020812D931192F6CF10927503E4
:100B8000109274030895E6EEF3E0119284E0E831E8
:100B9000F807D9F710927503109274037DCF8091F6
:100BA0007403909175030D970CF476CFE6EEF3E0A5
:100BB000119284E0E831F807D9F7ECCF2091E703F0
:100BC00080917403909175032D30B1F4A6E7B3E0E2
:100BD000E6EEF3E09F01265E33408217930724F090
:100BE00020812D931192F6CF109275031092740309
:100BF00081E08093A803089502970CF44DCFE6EEB0
:100C0000F3E0119284E0E831F807D9F7C3CFE6EEBC
:100C1000F3E0119284E0E831F807D9F7BBCF0895EB
:100C200080E090E0892B19F0FCDB811117C080E097
:100C300090E0892B19F0ECDB811113C080E090E08B
:100C4000892B41F080E090E0892B21F00E94000088
:100C500081110AC0D4DB81110AC008950E940000EE
:100C6000E6CF0E940000EACF0E940000F3CF14CF2D
:100C70002FB7F894609188047091890480918A0458
:100C800090918B042FBF08951F920F920FB60F9271
:100C900011242F933F938F939F93AF93BF93809192
:100CA000880490918904A0918A04B0918B043091BA
:100CB000870423E0230F2D3720F40196A11DB11DD9
:100CC00005C026E8230F0296A11DB11D20938704BD
:100CD0008093880490938904A0938A04B0938B0432
:100CE00080918C0490918D04A0918E04B0918F041A
:100CF0000196A11DB11D80938C0490938D04A09347
:100D00008E04B0938F04BF91AF919F918F913F91CB
:100D10002F910F900FBE0F901F9018951F920F925A
:100D20000FB60F9211240BB60F922F933F934F9350
:100D30005F936F937F938F939F93AF93BF93EF9343
:100D4000FF93E0E0F0E01995FF91EF91BF91AF9133
:100D50009F918F917F916F915F914F913F912F91D3
:100D60000F900BBE0F900FBE0F901F9018951F9203
:100D70000F920FB60F9211240BB60F922F933F9341
:100D80004F935F936F937F938F939F93AF93BF9393
:100D9000EF93FF938091B900887F803609F49CC05F
:100DA00068F5883209F45BC090F4803109F454C0CE
:100DB00038F4882309F4F6C0883009F44DC0F5C032
:100DC000883109F44CC0803209F45DC0EEC0803433
:100DD00009F468C048F4803309F455C0883309F039
:100DE000E4C080936004D8C0803509F44FC08835D2
:100DF00009F45DC0883409F0D8C0D6C0883909F438
:100E0000C7C0A8F4883709F467C038F4883609F4F5
:100E100063C0803709F460C0C8C0883809F4B8C01E
:100E2000803909F45FC0803809F0BFC05BC0803BE7
:100E300009F486C038F4803A09F466C0883A09F4A7
:100E40007FC0B3C0803C09F4A7C0883C09F4A4C0AB
:100E5000883B09F48AC0A9C08091860410C0909193
:100E6000850480918404981770F5E091850481E0F1
:100E70008E0F80938504F0E0EC59FB4F80818093C6
:100E8000BB0085EC86C0809360048EC0E091850431
:100E900081E08E0F809385048091BB00F0E0EC59D7
:100EA000FB4F808390918504809184046EC0E09113
:100EB000850481E08E0F809385048091BB00F0E073
:100EC000EC59FB4F80838091630481116DC081E0F8
:100ED0008093620484EA61C083E08093610410928D
:100EE0005F04CFCF80915F04803208F051C0E09161
:100EF0005F0481E08E0F80935F048091BB00F0E07F
:100F0000E15CFB4F8083BDCF85EC8093BC001092E9
:100F1000610480915F04803230F4E0915F04F0E07E
:100F2000E15CFB4F108260915F0470E0E0913D0452
:100F3000F0913E048FE394E0199510925F0435C060
:100F400084E08093610410923C0410923B04E09191
:100F50003904F0913A04199580913B04811105C040
:100F600081E080933B0410921904E0913C0481E0FD
:100F70008E0F80933C04F0E0E75EFB4F808180930E
:100F8000BB0090913C0480913B04981708F479CF02
:100F900085E88093BC0009C085EC8093BC0010926A
:100FA000610403C01092600423DBFF91EF91BF91B5
:100FB000AF919F918F917F916F915F914F913F91F1
:100FC0002F910F900BBE0F900FBE0F901F90189592
:100FD000CF92DF92EF92FF926C0160E08DE08EDCA9
:100FE000E12CF12CC701B6011FDD61E08DE086DC4C
:100FF000C701B601FF90EF90DF90CF9015CD61E073
:1010000087E17CDC61E088E079DC61E088E176DC26
:1010100061E089E173DC61E08AE170DC61E08DE12F
:101020006DDC61E08CE16ADC61E08FE167DC61E04E
:101030008BE164CC81E090E090935C0280935B0252
:1010400090936402809363029093620280936102A2
:101050009093600280935F0290935E0280935D02A2
:1010600090935A02809359029093580280935702AA
:101070000895CF93DF93EC0161E085E33FDC43E02B
:1010800050E0BE0183E994E03ED06DE083E994E056
:10109000F2D98881E0E9F4E08083898181838A81C3
:1010A000828365E070E080E090E0BEDC60E085E394
:1010B00025DC65E070E080E090E0DF91CF91B4CC7A
:1010C00096E0899FD0011124AE54B94F90967C933D
:1010D0006E935F9791E091969C93919790911E07E4
:1010E000E0911F07F0912007992339F0309751F0D4
:1010F000811108C08091CE0604C0309719F05C962B
:101100008C9119940895CF92DF92EF92FF920F93F2
:101110001F93CF93DF936C017A018B01C0E0D0E085
:10112000CE15DF0589F0D8016D918D01D601ED91C5
:10113000FC910190F081E02DC6011995892B11F4E5
:101140007E0102C02196ECCFC701DF91CF911F91A4
:101150000F91FF90EF90DF90CF900895CF92DF92A4
:10116000EF92FF920F931F93CF93DF93EC016A01ED
:101170007B01E889F98982E080834115514E610540
:101180007105B1F060E079E08DE390E0A701960190
:101190000E943E1589019A01015011092109310966
:1011A0003695279517950795980101151041A8F0D8
:1011B000E889F989108260E874E88EE190E0A7017F
:1011C00096010E943E15DA01C9010197A109B109F2
:1011D000B695A795979587959C01EC85FD853083FD
:1011E000EE85FF852083188EEC89FD8986E080835B
:1011F000EA89FB89808180618083EA89FB8980811B
:1012000088608083EA89FB89808180688083EA899D
:10121000FB8980818F7D8083DF91CF911F910F911A
:10122000FF90EF90DF90CF9008950F931F93CF938F
:10123000DF93EC0102E010E061E085E35FDB43E077
:1012400050E0BE0183E994E05EDF6DE083E994E065
:1012500012D98881809390048981809391048A8136
:101260008093920465E070E080E090E0DDDB60E078
:1012700085E344DB65E070E080E090E0D5DB0130A1
:10128000110519F001E010E0D7CFDF91CF911F9148
:101290000F9108950F931F93CF93DF93C82FD62FED
:1012A00086E0C89FF0011124EE54F94F11A2878DFA
:1012B00090A181309105E1F01CF4892B49F03FC0E9
:1012C0008230910591F10397D1F560E070E031C073
:1012D0006623A9F161E070E08C2FF2DEC9DC609337
:1012E0000A0770930B0780930C0790930D0727C094
:1012F000BFDC00910A0710910B0720910C07309179
:101300000D07AB01BC01401B510B620B730B8091AD
:101310001C0790911D07A0E0B0E084179507A60771
:10132000B70718F462E070E004C0D11108C063E0B0
:1013300070E08C2FDF91CF911F910F91C1CEDF9183
:10134000CF911F910F9108956115710579F0FB01FF
:1013500001900020E9F73197AF01461B570BDC01E4
:10136000ED91FC910280F381E02D199480E090E0F2
:101370000895CF93DF93BC018DEC95E0E5DFEC01A0
:1013800061EC72E08DEC95E0DFDF8C0F9D1FDF914B
:10139000CF910895CF93DF93CDB7DEB7A5970FB662
:1013A000F894DEBF0FBECDBF789484B5826084BD53
:1013B00084B5816084BD85B5826085BD85B5816059
:1013C00085BD80916E00816080936E0010928100D7
:1013D0008091810082608093810080918100816092
:1013E0008093810080918000816080938000809153
:1013F000B10084608093B1008091B00081608093DF
:10140000B000809191008260809391008091910062
:101410008160809391008091900081608093900022
:101420008091A10082608093A1008091A1008160E1
:101430008093A1008091A00081608093A0008091A2
:10144000210182608093210180912101816080933C
:1014500021018091200181608093200180917A0098
:10146000846080937A0080917A00826080937A0011
:1014700080917A00816080937A0080917A00806800
:1014800080937A001092C1001092AE061092AF06BF
:101490001092B0061092B10610926C0610926D0672
:1014A00010926E0610926F0660ED77E080E090E09B
:1014B000BBDA8DEC95E09093AD068093AC0640E8E6
:1014C00055E260E070E04ADED3DB60936C06709317
:1014D0006D0680936E0690936F0662EB72E08091CA
:1014E000AC069091AD0630DF6AE070E080E090E0FD
:1014F0009BDA81E08093800640E855E260E070E08E
:101500008DEC95E02BDE40E05BE460E070E083E989
:1015100094E024DE61E087E123DA61E087E1EED93F
:1015200061E088E01DDA61E088E0E8D961E088E107
:1015300017DA61E088E1E2D961E089E111DA61E07E
:1015400089E1DCD961E08DE10BDA61E08DE1D6D98A
:1015500061E08BE105DA61E08BE1D0D961E085E300
:10156000FFD960E085E3CAD961E08DE0F9D961E097
:101570008DE0C4D960E085E2F3D96F9882E092E013
:1015800078DD88E592E090931D0780931C0784E640
:1015900090E090931B0780931A0781E090E090936E
:1015A000010280930002812C912C54018394EE243B
:1015B000E394F12CFAE04F2E512C612C712C809188
:1015C000A9039091AA03803325E7920718F110929E
:1015D000AA031092A90385E092E04BDD8091DF031E
:1015E000882359F065E070E080E090E01DDA80E546
:1015F00092E03FDD84EC92E0BCDE8091E1039091CB
:10160000E2038330910558F401969093E2038093AE
:10161000E10305C001969093AA038093A90328DBF8
:1016200000910E0710910F072091100730911107BC
:10163000AB01BC01401B510B620B730B80911A076D
:1016400090911B07A0E0B0E084179507A607B707A5
:1016500028F08091E5038111CCC667C610E0809127
:101660001807181758F4E0911407F0911507E10FC7
:10167000F11D62E0808174D91F5FF1CF312C809120
:101680001907381608F064C0032D10E0E091160722
:10169000F0911707E00FF11F61E0808161D9E091BF
:1016A0001607F0911707E00FF11F60E0808126D93F
:1016B000D501C401032C04C0880F991FAA1FBB1FAA
:1016C0000A94D2F7AC019C0120953095212C809191
:1016D0001807281640F5C22CD12C80911407909140
:1016E0001507FC01EC0DFD1D80812CA33DA34AA331
:1016F0005BA3DAD8F60134962CA13DA14AA15BA1E7
:10170000EE0FFF1FEE54F94F892B29F48081918150
:10171000842B952B04C08081918182239323918314
:1017200080832394D4CFE0911607F0911707E00F40
:10173000F11F61E08081E2D8809116079091170730
:10174000FC01E00FF11F60E080810AD9339497CF4C
:101750000EEC16E0F8018FEF9FEF23813481232BED
:1017600021F41082928381831582369637E0EA3025
:10177000F30799F7C12C80911807C81608F057C0D5
:10178000D12C2C2C312CC101880F991FFC01E6545F
:10179000F94F1F0120911907D21608F046C0D10158
:1017A0006D917C910D2C02C0769567950A94E2F7B5
:1017B00061707727C29E900111242D0D311DE0919B
:1017C0001207F0911307E20FF31FA081E2EBF6E09E
:1017D00080E0458D568D4217530711F461701CC08F
:1017E0008F5F36968A30A9F7672BE9F0EEECF6E0CA
:1017F00080E090E04081411111C0B6E0B89FA001A7
:10180000B99F500D1124FA01EE54F94FA48F368F71
:10181000258F10A2178E61E03DDD05C0019636963A
:101820008A30910539F7D394B5CFC394A4CF80E023
:1018300090E0D12CFC01EE54F94F21A1222311F0AC
:10184000DD24D39406968C339105A1F711DA6093C9
:101850000E0770930F078093100790931107DD20F8
:1018600009F4F7CEDD24D394D80115968C91159701
:10187000882309F452C513968D919C911497823058
:10188000910509F465C38330910509F40CC40197EF
:1018900009F043C5D092C503EC918E2FEE0F990B42
:1018A000AA0BBB0BFC01E154F109E631F10508F08C
:1018B00034C58827EE58FF4F8F4F0C943215809116
:1018C000E503882309F429C580915602811125C5B5
:1018D0008091C403811134C08091C303811130C051
:1018E0008091C20381112CC08091C103811128C055
:1018F0008091C003811124C08091BF03811120C059
:101900008091BE0381111CC08091BD03811118C05C
:101910008091BC03811114C08091BB03811110C060
:101920008091BA0381110CC08DE492E0A2DBD092C9
:10193000E0031092C503D092E40384E690E048DB14
:101940008BEC92E003C38091E503882309F4E5C49E
:1019500080915602882309F4E0C48091C403811168
:1019600036C08091C303811132C08091C2038111BE
:101970002EC08091C10381112AC08091C0038111C2
:1019800026C08091BF03811122C08091BE038111C6
:101990001EC08091BD0381111AC08091BC038111CA
:1019A00016C08091BB03811112C08091BA038111CE
:1019B0000EC08AE492E05DDBD092E0031092560202
:1019C0001092C503D092E30384E690E001DB89EC3A
:1019D00092E0BCC28091E503882309F49EC4809103
:1019E0005602882309F499C48091C00381112DC047
:1019F0008091BF03811129C08091BE03811125C050
:101A00008091BD03811121C08091BC0381111DC053
:101A10008091BB03811119C08091E303811115C02E
:101A20008091E403811111C08091BA0381110DC02E
:101A30008091DE03811109C087E492E01ADBFADAB3
:101A4000D092C30384E690E0C3DA80ED92E07EC2D8
:101A50008091E503882309F460C4809156028823AD
:101A600009F45BC48091C003811129C08091BF0338
:101A7000811125C08091BE03811121C08091BD03D9
:101A800081111DC08091BC03811119C08091BB03DD
:101A9000811115C08091E303811111C08091E4038D
:101AA00081110DC08091BA03811109C084E492E0D4
:101AB000E0DAC0DAD092C40384E690E089DA86EDF9
:101AC00092E044C28091E503882309F426C4809102
:101AD0005602882309F421C48091C403811131C0C6
:101AE0008091C30381112DC08091C203811129C04F
:101AF0008091C103811125C08091BE03811121C055
:101B00008091BD0381111DC08091BC03811119C05A
:101B10008091BB03811115C08091E303811111C035
:101B20008091E40381110DC08091BA03811109C035
:101B300081E492E09EDAD092C0037CDA84E690E001
:101B400047DA8FED92E002C28091E503882309F421
:101B5000E4C380915602882309F4DFC38091C40353
:101B6000811131C08091C30381112DC08091C203C6
:101B7000811129C08091C103811125C08091BE03CC
:101B8000811121C08091BD0381111DC08091BC03D2
:101B9000811119C08091BB03811115C08091E303AD
:101BA000811111C08091E40381110DC08091BA03AD
:101BB000811109C08EE392E05CDAD092BF033ADA79
:101BC00084E690E005DA89EE92E0C0C18091E503F9
:101BD000882309F4A2C380915602882309F49DC387
:101BE0008091C003811129C08091BF03811125C05C
:101BF0008091BE03811121C08091BD0381111DC060
:101C00008091BC03811119C08091BB03811115C063
:101C10008091E303811111C08091E40381110DC013
:101C20008091BA03811109C08BE392E022DA02DAD3
:101C3000D092C10384E690E0CBD985EF92E086C1D3
:101C40008091E503882309F468C3809156028823B4
:101C500009F463C38091C00381112DC08091BF033B
:101C6000811129C08091BE03811125C08091BD03DF
:101C7000811121C08091BC0381111DC08091BB03E3
:101C8000811119C08091E303811115C08091E40393
:101C9000811111C08091BA0381110DC08091B503EB
:101CA000811109C088E392E0E4D9C4D9D092C2037B
:101CB00084E690E08DD98FEF92E048C18091E503F2
:101CC000882309F42AC380915602882309F425C386
:101CD0008091DC038111DEC18091C4038111DAC1DE
:101CE0008091C3038111D6C18091C2038111D2C1F9
:101CF0008091C10381112AC08091C003811126C047
:101D00008091BF03811122C08091BE0381111EC04A
:101D10008091BD0381111AC08091E303811116C027
:101D20008091E403811112C08091BA0381110EC029
:101D30008091B40381110AC085E392E09AD9D092D0
:101D4000BC03D092B3038AE093E073C08091C103D7
:101D50008111A0C18091C00381119CC18091BF03FA
:101D6000811198C18091BE03811194C18091BD03FE
:101D7000811190C18091E30381118CC18091E403B2
:101D8000811188C18091BA03811184C18091B4030B
:101D9000882309F47FC182E392E06BD982E193E06A
:101DA000E8DA1092B40346D984E690E011D972C102
:101DB0008091E503882309F4B0C2809156028823FC
:101DC00009F4ABC28091DB03811164C18091C4032B
:101DD000811160C18091C30381115CC18091C203F4
:101DE000811158C18091C103811154C18091C003F8
:101DF000811150C18091BF0381114CC18091BE03FC
:101E0000811148C18091BD03811144C18091E303D8
:101E1000811140C18091E40381113CC18091BA03DA
:101E2000811138C18FE292E024D9D092BB038CE1BA
:101E300093E09FDAB8CF8091E503882309F46DC25F
:101E400080915602882309F468C28091DA038111D7
:101E500035C08091C40381112BC08091C3038111CF
:101E600027C08091C203811123C08091C1038111D9
:101E70001FC08091C00381111BC08091BF038111DD
:101E800017C08091BC03811113C08091BB038111E5
:101E90000FC08091E30381110BC08091E403811195
:101EA00007C08091BA03811103C08CE292E0E1D8AF
:101EB000D092BE03BFD884E690E08AD886E293E051
:101EC00045C08091E503882309F427C2809156021A
:101ED000882309F422C28091D903811135C08091F1
:101EE000C40381112BC08091C303811127C080914D
:101EF000C203811123C08091C10381111FC0809151
:101F0000C00381111BC08091BF03811117C0809154
:101F1000BC03811113C08091BB0381110FC080915C
:101F2000E30381110BC08091E403811107C080910C
:101F3000BA03811103C089E292E09BD8D092BD031D
:101F400079D884E690E044D882E393E012DAA2C024
:101F5000D092B203D801EC918E2FEE0F990BAA0B01
:101F6000BB0BFC01E654F109E431F10508F0D5C1E1
:101F70008827E857FF4F8F4F75C59091E5038091F3
:101F80005602992309F480C0882309F4C6C110922F
:101F9000B6031092B7031092B8031092B90384E607
:101FA00090E016D880915B0290915C02019709F055
:101FB000B4C18091C4038111B0C18091C303811168
:101FC000ACC18091C2038111A8C18091C10381116C
:101FD000A4C18091C0038111A0C18091BF03811170
:101FE0009CC18091BE03811198C18091BD03811174
:101FF00094C18091E303811190C18091E403811128
:102000008CC18091BC03811188C18091BB03811177
:1020100084C186E292E02DD88EE393E0AAD9109293
:10202000DF03D092BA0361E08FE10E947E04109238
:10203000DE031092DD031092B5031092B1031092EB
:10204000DC031092DB031092B0031092AF031092E6
:10205000DA031092D903F0926402E0926302F092E4
:102060006202E0926102F0926002E0925F02F092FE
:102070005E02E0925D02F0925A02E0925902F09202
:102080005802E092570249C1882309F446C1D09210
:10209000B40343C11092B6031092B7031092B80371
:1020A0001092B9033AC11092B2031092C503D8013D
:1020B000EC918E2FEE0F990BAA0BBB0BFC01F19745
:1020C000E632F10508F029C18827E456FF4F8F4F0B
:1020D000C9C48091E503882309F41FC18091BA0324
:1020E00081111BC180915602882309F416C11092F8
:1020F000B6031092B7031092B8031092B90310926E
:10210000C30318C08091E503882309F406C18091B8
:10211000BA03811102C180915602882309F4FDC0DF
:102120001092B6031092B7031092B8031092B9033D
:102130001092C40383E292E0EEC08091E50388230D
:1021400009F4EBC08091BA038111E7C08091560277
:10215000882309F4E2C01092C0031092BF031092CA
:10216000B6031092B7031092B8031092B90380E23D
:1021700092E0D1C08091E503882309F4CEC080911C
:10218000BA038111CAC080915602882309F4C5C0E0
:102190001092B6031092B7031092B8031092B903CD
:1021A0001092C10318C08091E503882309F4B5C0DB
:1021B0008091BA038111B1C080915602882309F43D
:1021C000ACC01092B6031092B7031092B8031092ED
:1021D000B9031092C2038DE192E09DC08091E503A6
:1021E000882309F49AC08091BA03811196C0809126
:1021F0005602882309F491C01092B6031092B703D7
:102200001092B8031092B9038AE192E00ED81092AE
:10221000BC031092BB03D092B3030E94EF046093FF
:10222000AB037093AC038093AD039093AE0375C082
:102230008091E503882309F470C01092B6031092D0
:10224000B7031092B8031092B90387E192E063C01C
:102250008091E503882309F460C01092B6031092C0
:10226000B7031092B8031092B90384E192E053C00F
:102270008091E503882309F450C01092B6031092B0
:10228000B7031092B8031092B90381E192E043C002
:102290008091E503882309F440C08091BA0381113D
:1022A0003CC0809156028823C1F11092B60310926F
:1022B000B7031092B8031092B9038EE092E00E9427
:1022C00015091092BE031092BD0327C08091E5034B
:1022D000882319F1809156028823F9F01092B603F1
:1022E0001092B7031092B8031092B9038BE092E0FA
:1022F0000E9415091092BA0310C08091E50388234B
:1023000061F01092B6031092B7031092B8031092C6
:10231000B90388E092E00E9415090A5F1F4FB7E0F9
:102320000A301B0709F0A0CA94C985E20E94540430
:10233000892B09F05EC04091CA035091CB03609194
:10234000CC037091CD038091C6039091C703A091F7
:10235000C803B091C903443F51406105710560F164
:10236000883EE3E09E07A105B10530F11092C60357
:102370001092C7031092C8031092C9031092CA03A7
:102380001092CB031092CC031092CD0381E0809386
:10239000E5038093D00360E087E10E947E0480E53E
:1023A00092E00E94390884E493E00E94B90984E62F
:1023B00090E00E94E8070BC00196A11DB11D80931B
:1023C000C6039093C703A093C803B093C903209199
:1023D000E5038091D5039091D603A091D703B091E6
:1023E000D803222319F0679B20C0DEC1679B60C021
:1023F000DBC11092C6031092C7031092C80310925B
:10240000C9038091CA039091CB03A091CC03B091F2
:10241000CD030196A11DB11D8093CA039093CB03F8
:10242000A093CC03B093CD03D2CF4091D103509170
:10243000D2036091D3037091D403843F9140A105EE
:10244000B10548F1483EF3E05F076105710518F1F9
:102450001092D1031092D2031092D3031092D4039E
:102460001092D5031092D6031092D7031092D8037E
:102470001092E5031092D0038DE493E00E94B90915
:102480000E94FF0784E690E00E94E80783E592E05F
:102490000E94390852C04F5F5F4F6F4F7F4F40938C
:1024A000D1035093D2036093D3037093D40345C0F8
:1024B000843F9140A105B10508F43FC08091D1034C
:1024C0009091D203A091D303B091D403883E93405E
:1024D000A105B10590F18091CE039091CF030196B3
:1024E0009093CF038093CE0367E573E08DEC95E086
:1024F0000E94A4092091CE033091CF0340E050E028
:1025000019A28E010F5D1F4FCA01B901A3019201EB
:10251000B5D2605DD8016E938D012115310541055D
:10252000510591F7BD018DEC95E00E94A40961EC85
:1025300072E08DEC95E00E94A4098091A8038823A5
:1025400009F42EC1E09176038E2F90E0FC01EE5A43
:10255000F109E132F10508F017C18827EE53FF4F6A
:102560008F4F80C28091630290916402892B09F49D
:102570000BC110926402109263028091E5038823DC
:1025800009F402C170C08091610290916202892BAE
:1025900009F4FAC01092620210926102EECF8091AB
:1025A0005F0290916002892B09F4EEC010926002E4
:1025B00010925F02E2CF80915D0290915E02892BC2
:1025C00009F4E2C010925E0210925D02D6CF8091B3
:1025D0005B0290915C02892B09F4D6C010925C02D8
:1025E00010925B0287E693E00E94B909C6CF809102
:1025F000590290915A02892B09F4C6C010925A02CE
:1026000010925902BACF8091570290915802892BAB
:1026100009F4BAC01092580210925702AECF81E06E
:10262000809356028091E503882309F4ADC060E0F1
:102630008BE10E947E0461E08DE10E947E04109295
:10264000E40311C0109256028091E503882309F437
:102650009BC061E08BE10E947E0460E08DE10E94FE
:102660007E041092E30388EE93E08CC01092E203A4
:102670001092E1031092E0038091E503811184C080
:102680000E94FF0781C08091E503882309F47CC084
:1026900080917803803211F460E003C0813221F42C
:1026A00061E089E10E947E0480917903833279F0B0
:1026B00020F48232E9F460E012C0843251F08632B4
:1026C000B9F461E088E00E947E0460E00EC061E041
:1026D00006C060E088E00E947E0461E006C088E1F8
:1026E0000E947E0461E088E001C088E10E947E04CF
:1026F00080917A03863C61F460E08BE10E947E0465
:1027000061E08DE10E947E0481E0809356020CC05E
:10271000873C51F461E08BE10E947E0460E08DE132
:102720000E947E041092560210917E03112351F0F4
:1027300001E00093DF0360E08FE10E947E0411FD61
:1027400014C015C01092DF0361E08FE10E947E0487
:102750001092DE031092DD031092DC031092DB0373
:102760001092DA031092D9030FC00093DA0312FD1E
:102770002FC013FD31C014FD33C015FD35C004C09A
:1027800088EC90E00E94E8071092A803109275036D
:10279000109274036AE070E080E090E00E941405FB
:1027A0000E9410060C94DF0A1092D1031092D203FB
:1027B0001092D3031092D4030196A11DB11D8093F2
:1027C000D5039093D603A093D703B093D803B5CE87
:1027D00081E08093DE03CDCF81E08093DD03CBCF1A
:1027E00081E08093DB03C9CF81E08093DC03CCCF11
:1027F000109296041092950488EE93E0A0E0B0E069
:102800008093970490939804A0939904B0939A04AA
:102810002CE832E0309394042093930445E351E094
:102820005093A00440939F0444E351E05093A204CA
:102830004093A10440E351E05093A4044093A304C7
:1028400041E351E05093A6044093A50442E351E0D4
:102850005093A8044093A70446E351E05093AA0480
:102860004093A9041092AC041092AD041092AE04EF
:102870001092AF0410923305109232058093340504
:1028800090933505A0933605B09337053093310505
:10289000209330054DEC50E050933D0540933C05AE
:1028A0004CEC50E050933F0540933E0548EC50E01F
:1028B000509341054093400549EC50E05093430547
:1028C000409342054AEC50E050934505409344053F
:1028D0004EEC50E050934705409346051092490551
:1028E00010924A0510924B0510924C051092D0059B
:1028F0001092CF058093D1059093D205A093D30574
:10290000B093D4053093CE052093CD0525EC30E06F
:102910003093DA052093D90524EC30E03093DC05C0
:102920002093DB0520EC30E03093DE052093DD05BD
:1029300021EC30E03093E0052093DF0522EC30E01D
:102940003093E2052093E10526EC30E03093E40576
:102950002093E3051092E6051092E7051092E80532
:102960001092E9051092700610927106109272068C
:1029700010927306109274061092750610927606E5
:1029800010927706109278061092790610927A06C5
:1029900010927B0610927C0610927D0610927E06A5
:1029A00010927F0610922407109223078093250728
:1029B00090932607A0932707B09328078CE992E00D
:1029C00090932207809321071092B4061092B806C4
:1029D0001092B7061092B9068CEA92E09093B30673
:1029E0008093B20680E090E0FC01EE54F94F148E23
:1029F00010A2178E11A206968C339105A9F788E6CE
:102A000092E0909315078093140785E692E09093E7
:102A100017078093160788E08093180783E0809358
:102A2000190780E792E090931307809312078AE0DA
:102A300090E090931B0780931A0784EF91E09093A6
:102A40001D0780931C071092200710921F071092F9
:102A50000E0710920F071092100710921107109294
:102A60001E070895EE0FFF1F881F8BBF0790F6917A
:102A7000E02D199481E090E0F89422C0A1E21A2E92
:102A8000AA1BBB1BFD010DC0AA1FBB1FEE1FFF1F12
:102A9000A217B307E407F50720F0A21BB30BE40B62
:102AA000F50B661F771F881F991F1A9469F76095A9
:102AB0007095809590959B01AC01BD01CF01089563
:042AC000F894FFCFB8
:102AC4000100A643E9AE49F7ADDF8CACDF8BA7DF8D
:102AD40086AADF89A5DF84A4DF83A3DF82A2DF8146
:102AE400A1DF80A0DF7FACDD89A7D178A7D077A351
:102AF400D174B5DA8FA3D073A2D173A2D072A1D14D
:102B040072A1D071A0D171A0D070B0D181B0D080A9
:102B1400AE42F0AE4AF801010001000100010001DB
:102B24000001000100222120302F2E2D2C2B2A24DD
:102B34004142434445464748494A4B4C4D4E4F5009
:102B44005152535455565859000000003B02830813
:102B5400F301D101E5018102000000004C033803B8
:102B640031032E032B032A0300000000EC04AD0400
:102B74007C04564D4450565F317C315F564D445071
:102B8400560D0A003132333400554E4C4F434B003E
:102B94005452454E44005452454E44524556004802
:102BA40045494748545F5550004845494748545F94
:102BB400444F574E0054494C545F4C4546540054BE
:102BC400494C545F5249474854004241434B5F5576
:102BD40050004175746F5F4D6F7665004241434B01
:102BE4005F444F574E00534C4944494E475F465744
:102BF4004400534C4944494E475F425744004C45B6
:102C040056454C00506F776572206F6E00506F7799
:102C14006572206F666600636F756E74506F7765BA
:102C2400724F46463A20004C4556454C2046696E44
:042C34006973680058
:020000023000CC
:10E000000D9489F10D94B2F10D94B2F10D94B2F129
:10E010000D94B2F10D94B2F10D94B2F10D94B2F1F0
:10E020000D94B2F10D94B2F10D94B2F10D94B2F1E0
:10E030000D94B2F10D94B2F10D94B2F10D94B2F1D0
:10E040000D94B2F10D94B2F10D94B2F10D94B2F1C0
:10E050000D94B2F10D94B2F10D94B2F10D94B2F1B0
:10E060000D94B2F10D94B2F10D94B2F10D94B2F1A0
:10E070000D94B2F10D94B2F10D94B2F10D94B2F190
:10E080000D94B2F10D94B2F10D94B2F10D94B2F180
:10E090000D94B2F10D94B2F10D94B2F10D94B2F170
:10E0A0000D94B2F10D94B2F10D94B2F10D94B2F160
:10E0B0000D94B2F10D94B2F10D94B2F10D94B2F150
:10E0C0000D94B2F10D94B2F10D94B2F10D94B2F140
:10E0D0000D94B2F10D94B2F10D94B2F10D94B2F130
:10E0E0000D94B2F141546D656761323536300041AF
:10E0F000726475696E6F206578706C6F72657220DE
:10E1000073746B3530305632206279204D4C530099
:10E11000426F6F746C6F616465723E004875683F52
:10E1200000436F6D70696C6564206F6E203D200048
:10E130004350552054797065202020203D20005FF9
:10E140005F4156525F415243485F5F3D2000415658
:10E1500052204C696243205665723D20004743437C
:10E160002056657273696F6E203D20004350552024
:10E1700049442020202020203D20004C6F7720663D
:10E18000757365202020203D20004869676820665F
:10E190007573652020203D200045787420667573D6
:10E1A00065202020203D20004C6F636B2066757336
:10E1B000652020203D20004D617220203720323024
:10E1C000313300312E362E3800342E332E350056A2
:10E1D00023202020414444522020206F7020636F70
:10E1E00064652020202020696E73747275637469E1
:10E1F0006F6E2061646472202020496E74657272B3
:10E20000757074006E6F20766563746F7200726A49
:10E210006D702020006A6D70200057686174207056
:10E220006F72743A00506F7274206E6F7420737541
:10E2300070706F72746564004D7573742062652030
:10E2400061206C6574746572002000577269747483
:10E25000696E672045450052656164696E672045B7
:10E26000450045452065727220636E743D00504F35
:10E27000525400303D5A65726F2061646472003FF1
:10E280003D43505520737461747300403D454550C3
:10E29000524F4D207465737400423D426C696E6B41
:10E2A000204C454400453D44756D70204545505215
:10E2B0004F4D00463D44756D7020464C415348001B
:10E2C000483D48656C70004C3D4C69737420492F83
:10E2D0004F20506F72747300513D51756974005234
:10E2E0003D44756D702052414D00563D73686F7707
:10E2F00020696E7465727275707420566563746FF0
:10E30000727300593D506F727420626C696E6B00BD
:10E310002A0011241FBECFEFD1E2DEBFCDBF01E046
:10E320000CBF12E0A0E0B2E0EEE1FDEF03E00BBFB6
:10E3300002C007900D92A030B107D9F712E0A0E01B
:10E34000B2E001C01D92AE30B107E1F70F9460F367
:10E350000D948DFE01E20EBF0FEF0DBF11241FBE05
:10E360000D9460F30D9400F020E030E040ED57E0B4
:10E3700005C0FA013197F1F72F5F3F4F2817390792
:10E38000C0F308959C01260F311DC901A0E0B0E043
:10E390002F5F3F4FABBFFC018791882361F08093D3
:10E3A000C6008091C00086FFFCCF8091C0008064D1
:10E3B0008093C000EACF08958DE08093C6008091DD
:10E3C000C00086FFFCCF8091C00080648093C000B5
:10E3D0008AE08093C6008091C00086FFFCCF8091C8
:10E3E000C00080648093C00008950F94C2F10F9420
:10E3F000DCF10895FC019081992359F09093C600B7
:10E400008091C00086FFFCCF8091C0008064809323
:10E41000C0003196992379F70895282F982F929567
:10E420009F70892F805D8A3308F0895F8093C600D2
:10E430008091C00086FFFCCF8091C00080648093F3
:10E44000C000822F8F70982F905D9A3308F0995FEB
:10E450009093C6008091C00086FFFCCF8091C000E1
:10E4600080648093C00008959C01FB01853691056E
:10E470001CF46330710594F0C90164E670E00F94F8
:10E480002EFE605D7F4F6093C6008091C00086FFC6
:10E49000FCCF8091C00080648093C0002B30310598
:10E4A00014F43297B4F0C90164E670E00F942EFEC4
:10E4B0006AE070E00F942EFE605D7F4F6093C600AF
:10E4C0008091C00086FFFCCF8091C0008064809363
:10E4D000C000C9016AE070E00F942EFEC0968093E0
:10E4E000C6008091C00086FFFCCF8091C000806490
:10E4F0008093C00008951F93182F8EE692EE60E07F
:10E500000F94C2F11093C6008091C00086FFFCCF2B
:10E510008091C00080648093C0000F94DCF11F9153
:10E5200008952F923F924F925F926F927F928F92B7
:10E530009F92AF92BF92CF92DF92EF92FF920F9392
:10E540001F93DF93CF93CDB7DEB762970FB6F894E2
:10E55000DEBF0FBECDBF382E622ECA01DB015C01CB
:10E560006D01772420E2222E2E010894411C511CBB
:10E570008BC081E0A81680E0B80681E0C80680E084
:10E58000D80628F0C601AA27BB270F940DF2BB2797
:10E59000AD2D9C2D8B2D0F940DF28A2D0F940DF225
:10E5A0002092C6008091C00086FFFCCF8091C00001
:10E5B00080648093C0009DE29093C6008091C0006B
:10E5C00086FFFCCF8091C00080648093C0002092C1
:10E5D000C6008091C00086FFFCCF8091C00080649F
:10E5E0008093C00019828601750188249924A1E0D6
:10E5F0003A1651F03A1620F0B2E03B1661F409C029
:10E600000BBFF701779007C0C7010F9477FE782EF4
:10E6100002C0F7017080872D0F940DF22092C60082
:10E620008091C00086FFFCCF8091C0008064809301
:10E63000C000872D8052F401EF70F0708F3520F408
:10E64000E40DF51D708204C0E40DF51D8EE280839B
:10E650000894E11CF11C011D111D0894811C911CE2
:10E6600090E18916910409F0C2CF80E190E0A0E02A
:10E67000B0E0A80EB91ECA1EDB1E198AC2010F9493
:10E68000FAF10F94DCF16A94662009F072CF629679
:10E690000FB6F894DEBF0FBECDBFCF91DF911F91B3
:10E6A0000F91FF90EF90DF90CF90BF90AF909F9031
:10E6B0008F907F906F905F904F903F902F90089534
:10E6C0002F923F924F925F926F927F928F929F9282
:10E6D000AF92BF92CF92DF92EF92FF920F931F9370
:10E6E000DF93CF93CDB7DEB7CD53D1400FB6F894BB
:10E6F000DEBF0FBECDBF01E20EBF0FEF0DBF94B75F
:10E70000F894A89514BE80916000886180936000A1
:10E7100010926000789493FF05C0E0910002F091A0
:10E7200001021995279A2F9A8091C00082608093E8
:10E73000C00080E18093C40088E18093C1000000A4
:10E74000EE24FF24870144E0A42EB12CCC24DD2448
:10E7500024C0C5010197F1F70894E11CF11C011DCB
:10E76000111D21E2E2162EE4F20620E0020720E06D
:10E77000120718F031E0C32ED12CC801B70127ECE5
:10E780003BE140E050E00F9441FE611571058105C9
:10E79000910519F485B1805885B98091C00087FD35
:10E7A00003C0C114D104A9F2A6014F5F5F4FC25E3E
:10E7B000DE4F59834883CE51D140C25EDE4F8881FF
:10E7C0009981CE51D140019711F00D9410FEC05D9A
:10E7D000DE4F19821882C053D14060E0C15DDE4F28
:10E7E0001882CF52D14088249924C35DDE4F19820C
:10E7F0001882CD52D140C05EDE4F188219821A8233
:10E800001B82C052D140CE5CDE4F188219821A8220
:10E810001B82C253D140EE24FF2487010BBFF701B6
:10E8200007911691C45CDE4F19830883CC53D14005
:10E830000D940BFEC25EDE4F28813981CE51D1404E
:10E840002130310509F52091C600C25EDE4F1982E4
:10E850001882CE51D14022C02F5F3F4F4F4F5F4FA4
:10E86000213082E138078AE7480780E0580780F0C6
:10E87000C45CDE4FE881F981CC53D140EF5FFF4F9C
:10E8800019F0EE27FF27099420E030E040E050E047
:10E890008091C00087FFE0CF2091C600C35DDE4FAE
:10E8A00048815981CD52D1404F5F5F4FC35DDE4FEC
:10E8B00059834883CD52D140213209F063C64A3092
:10E8C000510508F05FC60894811C911C53E0851621
:10E8D000910409F059C600E010E018C081E280936D
:10E8E000C6008091C00086FFFCCF8091C00080648C
:10E8F0008093C0002F5F3F4F2931310579F70F9486
:10E90000DCF10F5F1F4F0530110519F020E030E0FA
:10E91000E5CF10920A0210920B0210920C02109294
:10E920000D02109206021092070210920802109235
:10E930000902109202021092030210920402109235
:10E9400005028FEE90EE60E00F94F5F180E191EE1C
:10E9500060E00F94C2F18091C00087FFFCCF9091DE
:10E96000C600903608F09F759032B8F09093C600BC
:10E970008091C00086FFFCCF8091C00080648093AE
:10E98000C000A0E2A093C6008091C00086FFFCCF2B
:10E990008091C00080648093C000983409F4D7C18E
:10E9A0009934B8F4923409F459C1933458F490333B
:10E9B00019F1903308F4E3C59F33A1F1903409F0C5
:10E9C000DEC5BDC0953409F470C1963409F0D7C5D1
:10E9D00098C1923509F42BC2933538F49C3409F46C
:10E9E000F5C1913509F0CBC518C2963509F445C279
:10E9F000993509F0C4C567C483E792EE62E00F94CD
:10EA0000F5F110920602109207021092080210927D
:10EA1000090210920A0210920B0210920C0210923C
:10EA20000D0213C18FE792EE62E00F94F5F18FEEC5
:10EA300090EE60E00F94F5F181E291EE60E00F94CA
:10EA4000C2F187EB91EE60E00F94F5F180E391EE77
:10EA500060E00F94C2F184EE90EE60E00F94F5F167
:10EA60008FE391EE60E00F94C2F186E090E061E008
:10EA700070E00F9434F20F94DCF18DE591EE60E0DC
:10EA80000F94C2F189EC91EE60E00F94F5F18EE401
:10EA900091EE60E00F94C2F183EC91EE60E00F9490
:10EAA000F5F18CE691EE60E00F94C2F18EE10F94E7
:10EAB0000DF288E90F940DF281E00F940DF20F949E
:10EAC000DCF18BE791EE60E00F94C2F119E0E0E039
:10EAD000F0E010935700E4918E2F0F940DF20F94F5
:10EAE000DCF18AE891EE60E00F94C2F1E3E0F0E03F
:10EAF00010935700E4918E2F0F940DF20F94DCF1D8
:10EB000089E991EE60E00F94C2F1E2E0F0E0109349
:10EB10005700E4918E2F0F940DF20F94DCF188EAE8
:10EB200091EE60E00F94C2F1E1E0F0E01093570045
:10EB30001491812F0F940DF20F94DCF107CF8BE825
:10EB400092EE62E00F94F5F18BE492EE60E00F94A8
:10EB5000F5F10F94DCF100E010E019C0C8016F2D51
:10EB60000F947FFEFF2031F489E492EE60E00F9471
:10EB7000C2F10BC0F092C6008091C00086FFFCCFAE
:10EB80008091C00080648093C0000F5F1F4FC80158
:10EB900081519F41A0E0B0E0ABBFFC01F790BAE229
:10EBA000FB1621F0E2E000301E07C1F60F94DCF105
:10EBB0000F94DCF187E592EE60E00F94F5F10F948D
:10EBC000DCF1CC24DD2400E010E01EC0C8010F946D
:10EBD00077FEF82E882331F489E492EE60E00F94FA
:10EBE000C2F10BC08093C6008091C00086FFFCCFAD
:10EBF0008091C00080648093C000FE1419F00894D6
:10EC0000C11CD11C0F5F1F4FC80181519F41A0E063
:10EC1000B0E0ABBFFC01E790FAE2EF1621F022E092
:10EC20000030120799F60F94DCF10F94DCF182E6C4
:10EC300092EE60E00F94C2F1C60161E070E00F94C3
:10EC400034F20F94DCF10F94DCF110920202109276
:10EC50000302109204021092050278CE89E992EE26
:10EC600062E00F94F5F1279A2F9A16C02F9880E052
:10EC700090E0E0EDF7E03197F1F7019684369105E9
:10EC8000C1F72F9A80E090E0E0EDF7E03197F1F7DF
:10EC9000019684369105C1F78091C00087FFE6CFC9
:10ECA0008091C00087FFFCCF64C485EA92EE62E0E9
:10ECB0000F94F5F140910202509103026091040219
:10ECC0007091050281E020E10F9491F2809102029F
:10ECD00090910302A0910402B091050280509F4FD1
:10ECE000AF4FBF4F8093020290930302A0930402A0
:10ECF000B093050280509041A040B04008F426CE69
:10ED0000A4CF83EB92EE62E00F94F5F140910602FE
:10ED100050910702609108027091090280E020E1A1
:10ED20000F9491F28091060290910702A09108023F
:10ED3000B091090280509F4FAF4FBF4F80930602A2
:10ED400090930702A0930802B0930902FFCD80ECD4
:10ED500092EE62E00F94F5F183E792EE60E00F949B
:10ED6000F5F18FE792EE60E00F94F5F18BE892EE0B
:10ED700060E00F94F5F189E992EE60E00F94F5F10F
:10ED800085EA92EE60E00F94F5F183EB92EE60E09D
:10ED90000F94F5F180EC92EE60E00F94F5F187ECC2
:10EDA00092EE60E00F94F5F188ED92EE60E00F9442
:10EDB000F5F18FED92EE60E00F94F5F18AEE92EEB0
:10EDC00060E00F94F5F183E093EEBDCD87EC92EE19
:10EDD00062E00F94F5F181E40F947BF282E40F94EA
:10EDE0007BF283E40F947BF284E40F947BF285E45E
:10EDF0000F947BF286E40F947BF287E40F947BF20E
:10EE000088E40F947BF28AE40F947BF28BE40F94F6
:10EE10007BF28CE40F947BF299CD88ED92EE62E068
:10EE20000F94F5F1772473948824992409C48FED05
:10EE300092EE62E00F94F5F140910A0250910B02BC
:10EE400060910C0270910D0282E020E10F9491F22A
:10EE500080910A0290910B02A0910C02B0910D02D8
:10EE600080509F4FAF4FBF4F80930A0290930B0289
:10EE7000A0930C02B0930D0269CD8AEE92EE62E08F
:10EE80000F94F5F184EE90EE60E00F94F5F18FECC5
:10EE900091EE60E00F94F5F1662477244301CC5D98
:10EEA000DE4F19821882C452D140D401C301B695F5
:10EEB000A79597958795CA5DDE4F88839983AA8326
:10EEC000BB83C652D140CC5DDE4FA881B981C4520C
:10EED000D1401196CC5DDE4FB983A883C452D14096
:10EEE000CD0162E070E00F9434F2B0E2B093C6005E
:10EEF0008091C00086FFFCCF8091C0008064809329
:10EF0000C000EDE2E093C6008091C00086FFFCCF18
:10EF10008091C00080648093C000F0E2F093C6004E
:10EF20008091C00086FFFCCF8091C00080648093F8
:10EF3000C000CA5DDE4FE880F9800A811B81C6529D
:10EF4000D140BB27A12F902F8F2D0F940DF2CA5DBA
:10EF5000DE4F8881C652D1400F940DF2B0E2FB2EF5
:10EF6000F092C6008091C00086FFFCCF8091C00067
:10EF700080648093C0000DE30093C6008091C000C0
:10EF800086FFFCCF8091C00080648093C00010E2B7
:10EF90001093C6008091C00086FFFCCF8091C00016
:10EFA00080648093C0008BBEF3012791C65DDE4F65
:10EFB0002883CA52D140A22EBB24CC24DD2408943D
:10EFC000611C711C811C911C8BBEF3018791282E42
:10EFD0003324442455240894611C711C811C911C09
:10EFE0008BBEF3013791C55DDE4F3883CB52D140E4
:10EFF0000894611C711C811C911C8BBEF30147910C
:10F00000C45DDE4F4883CC52D140ADEFEA2EAFEF66
:10F01000FA2EAFEF0A2FAFEF1A2F6E0C7F1C801E57
:10F02000911E142D032DF22CEE24EA0CFB1C0C1D5A
:10F030001D1D0F940DF220E22093C6008091C000A8
:10F0400086FFFCCF8091C00080648093C000C65DC5
:10F05000DE4F8881CA52D1400F940DF230E23093D6
:10F06000C6008091C00086FFFCCF8091C000806404
:10F070008093C000C45DDE4F8881CC52D1400F9494
:10F080000DF240E24093C6008091C00086FFFCCFA5
:10F090008091C00080648093C000C55DDE4F888190
:10F0A000CB52D1400F940DF250E25093C6008091A4
:10F0B000C00086FFFCCF8091C00080648093C000B8
:10F0C0008FEFE8168FEFF80680E0080780E018075A
:10F0D00031F484E092EE60E00F94C2F1DFC0D80119
:10F0E000C7018070907CA070B0708050904CA040A0
:10F0F000B040D1F52FEF3FE340E050E0E222F322B1
:10F1000004231523CA5DDE4FA880B980CA80DB8046
:10F11000C652D140AE0CBF1CC01ED11EAA0CBB1CD7
:10F12000CC1CDD1C8EE092EE60E00F94C2F1BB2798
:10F13000A12F902F8F2D0F940DF28E2D0F940DF285
:10F1400030E23093C6008091C00086FFFCCF8091F2
:10F15000C00080648093C0004EE34093C60080915D
:10F16000C00086FFFCCF87C08EE09EEFA0E0B0E03D
:10F17000E822F9220A231B239CE0E91694E9F90608
:10F1800090E0090790E0190709F088C0C45DDE4FE0
:10F19000A881CC52D140EA2EFF2400E010E0102FCD
:10F1A0000F2DFE2CEE24C55DDE4FB881CB52D14031
:10F1B000EB0EF11C011D111DD601C501817090706F
:10F1C000A070B070DC0199278827E80EF91E0A1F8D
:10F1D0001B1F20EF30E040E050E0A222B322C42207
:10F1E000D52241E1AA0CBB1CCC1CDD1C4A95D1F7F1
:10F1F000EA0CFB1C0C1D1D1D81E090E0A0E0B0E0BE
:10F20000282239224A225B2235E1220C331C441C7D
:10F21000551C3A95D1F7E20CF31C041D151D57013E
:10F220006801AA0CBB1CCC1CDD1C85E192EE60E0E1
:10F230000F94C2F1C801AA27BB270F940DF2BB2778
:10F24000A12F902F8F2D0F940DF28E2D0F940DF274
:10F2500090E29093C6008091C00086FFFCCF809121
:10F26000C00080648093C000AEE3A093C60080918C
:10F27000C00086FFFCCF8091C00080648093C000F6
:10F28000C601AA27BB270F940DF2BB27AD2D9C2DDD
:10F290008B2D0F940DF28A2D0F940DF20F94DCF14B
:10F2A000CC5DDE4FE881F981C452D140F99709F471
:10F2B0004DCBF4E0EF2EF12C012D112D6E0C7F1CA7
:10F2C000801E911EF2CD83E093EE62E00F94F5F183
:10F2D0008AE192EE60E00F94C2F18091C00087FF56
:10F2E000FCCF1091C6001F751093C6008091C0001E
:10F2F00086FFFCCF8091C00080648093C0000F9493
:10F30000DCF1812F81548A3108F036C1163409F4BA
:10F3100095C0173490F4133409F44EC0143430F40B
:10F320001134F1F0123409F01DC130C0143409F465
:10F3300059C0153409F016C16BC01A3409F4C4C0A1
:10F340001B3438F4173409F48FC0183409F00AC19B
:10F35000A1C01B3409F4D2C01C3409F003C1E8C0B9
:10F360008FEF81B90DC082B1809582B980E090E0C5
:10F37000E0EDF7E03197F1F70196883C9105C1F790
:10F380008091C00087FFEFCF12B8EFC08FEF84B934
:10F390000DC085B1809585B980E090E0E0EDF7E0A3
:10F3A0003197F1F70196883C9105C1F78091C00033
:10F3B00087FFEFCF15B8D9C08FEF87B90DC088B1DF
:10F3C000809588B980E090E0E0EDF7E03197F1F7C3
:10F3D0000196883C9105C1F78091C00087FFEFCF6F
:10F3E00018B8C3C08FEF8AB90DC08BB180958BB9A7
:10F3F00080E090E0E0EDF7E03197F1F70196883C8E
:10F400009105C1F78091C00087FFEFCF1BB8ADC059
:10F410008FEF8DB90DC08EB180958EB980E090E0F0
:10F42000E0EDF7E03197F1F70196883C9105C1F7DF
:10F430008091C00087FFEFCF1EB897C08FEF80BBD1
:10F440000DC081B3809581BB80E090E0E0EDF7E0F6
:10F450003197F1F70196883C9105C1F78091C00082
:10F4600087FFEFCF11BA81C08FEF83BB0DC084B38C
:10F47000809584BB80E090E0E0EDF7E03197F1F714
:10F480000196883C9105C1F78091C00087FFEFCFBE
:10F4900014BA6BC08FEF809301010FC080910201FD
:10F4A00080958093020180E090E0E0EDF7E03197F5
:10F4B000F1F70196883C9105C1F78091C00087FF64
:10F4C000EDCF1092020151C08FEF809304010FC065
:10F4D0008091050180958093050180E090E0E0ED4A
:10F4E000F7E03197F1F70196883C9105C1F78091DB
:10F4F000C00087FFEDCF1092050137C08FEF8093DA
:10F5000007010FC08091080180958093080180E079
:10F5100090E0E0EDF7E03197F1F70196883C910536
:10F52000C1F78091C00087FFEDCF109208011DC088
:10F530008FEF80930A010FC080910B01809580931B
:10F540000B0180E090E0E0EDF7E03197F1F70196F4
:10F55000883C9105C1F78091C00087FFEDCF1092E4
:10F560000B0103C085E292EEEEC98091C00087FFD7
:10F57000FCCF8091C600EAC988E392EEE4C98CE131
:10F5800091EEE1C988249924933011F1943028F444
:10F59000913089F09230B8F408C0953061F195301F
:10F5A000F0F0963009F048C043C02B3109F042C951
:10F5B00091E06BE13FC96227C15DDE4F2883CF52E6
:10F5C000D14092E037C9B22FA0E0622793E032C960
:10F5D000822F90E0A82BB92B622794E02BC92E3004
:10F5E00009F039C3622795E0C05DDE4F19821882A9
:10F5F000C053D1401FC9E1E0F0E0EC0FFD1FC05D3A
:10F60000DE4F08811981C053D140E00FF11F2083E4
:10F610000F5F1F4FC05DDE4F19830883C053D14079
:10F6200062270A171B0709F005C9D80196E002C92D
:10F63000261709F010C303C0973009F0FBC87724E0
:10F640009981933109F412C19431C8F4963009F4C8
:10F65000D8C0973050F4923009F406C1933009F4C1
:10F660006DC0913009F059C253C0913109F477C08F
:10F67000923108F0BBC0903109F04FC2F5C098310B
:10F6800009F487C0993150F4953109F4EFC09531F0
:10F6900008F4C6C1963109F040C2C2C19A3109F4DA
:10F6A0006CC09A3108F491C09B3109F45BC09D3164
:10F6B00009F033C29D81903359F48F81882311F46E
:10F6C0009EE11CC0813011F091E018C098E916C08D
:10F6D000892F807591F0903539F4E0E0F0E089E011
:10F6E0008093570094910AC0983539F4E3E0F0E034
:10F6F00089E080935700949101C090E01A821B82A8
:10F700008D818C831D829E831F8227E030E009C299
:10F710001A8288E08B8381E48C8386E58D8382E581
:10F720008E8389E48F8383E5888780E589878FE5E9
:10F730008A8782E38B872BE030E0F3C18A818139AD
:10F7400041F0823941F0803911F48FE005C080E04A
:10F7500003C082E001C08AE01A828B8344C0772410
:10F76000739482C08D81882311F48EE12CC0813086
:10F7700011F081E028C088E926C01A82E1E0F0E0BB
:10F7800089E08093570084918B831C8224E030E0D1
:10F79000C8C18B81803589F48C81883039F4E2E0EE
:10F7A000F0E089E08093570084910DC0E0E0F0E044
:10F7B00089E080935700849106C0E3E0F0E089E09F
:10F7C0008093570084911A82DFCF8D81836C99E0FA
:10F7D000E1E0F0E0082E90935700E89507B600FCB2
:10F7E000FDCF1A821B8223E030E09BC180EC8A832C
:10F7F000CE5CDE4F188219821A821B82C253D1401E
:10F800008EC18A8190E0A0E0B0E0582F44273327D2
:10F8100022278B8190E0A0E0B0E0DC0199278827C7
:10F82000282B392B4A2B5B2B8D8190E0A0E0B0E098
:10F83000282B392B4A2B5B2B8C8190E0A0E0B0E089
:10F84000BA2FA92F982F8827282B392B4A2B5B2BCF
:10F85000220F331F441F551FC05EDE4F288339839C
:10F860004A835B83C052D1401A8259C13A81C95C34
:10F87000DE4F3883C753D140CA5CDE4F1882C6536F
:10F88000D1408B81C82EDD24CA5CDE4F488159816E
:10F89000C653D140C42AD52A933109F082C0CE5C28
:10F8A000DE4F88819981AA81BB81C253D1408050AB
:10F8B000904CA340B04030F583E0CE5CDE4FE88052
:10F8C000F9800A811B81C253D140F70100935B008C
:10F8D00080935700E89507B600FCFDCFCE5CDE4F65
:10F8E000088119812A813B81C253D14000501F4FAA
:10F8F0002F4F3F4FCE5CDE4F088319832A833B8313
:10F90000C253D140C05EDE4F488159816A817B81FC
:10F91000C052D140DE011B9631E08C9111962C91A2
:10F9200011971296C75CDE4F2883C953D140C85C3B
:10F93000DE4F1882C853D14090E0C85CDE4FE881AA
:10F94000F981C853D1408E2B9F2B0C01FA01609393
:10F950005B0030935700E89511244E5F5F4F6F4F67
:10F960007F4F0EEFE02E0FEFF02ECE0CDF1CC114F8
:10F97000D10499F685E0C05EDE4F088119812A81A5
:10F980003B81C052D140F80120935B008093570027
:10F99000E89507B600FCFDCF81E180935700E8951C
:10F9A00035C0C05EDE4F88819981AA81BB81C0527B
:10F9B000D140B695A795979587957C018601ABE0D8
:10F9C000AA2EB12CAC0EBD1E0BC0D5016D915D01F0
:10F9D000C7010F947FFE0894E11CF11C01501040F8
:10F9E0000115110591F7A60160E070E0440F551F65
:10F9F000661F771FC05EDE4FE880F9800A811B8199
:10FA0000C052D1404E0D5F1D601F711F1A82C05E33
:10FA1000DE4F488359836A837B83C052D1407FC0C5
:10FA2000FA80C55CDE4FF882CB53D140C65CDE4F16
:10FA30001882CA53D1408B81C82EDD24C65CDE4FAC
:10FA400008811981CA53D140C02AD12A1A828981DA
:10FA5000BE016D5F7F4F843121F59601C05EDE4FA0
:10FA6000E880F9800A811B81C052D1400BBFF701A9
:10FA700087919691DB018C9311969C936E5F7F4FDB
:10FA8000D801C7010296A11DB11DC05EDE4F88835B
:10FA90009983AA83BB83C052D14022503040F1F6F3
:10FAA00036C0C05EDE4F288139814A815B81C052F9
:10FAB000D1400894C108D108760100E010E0089414
:10FAC000C11CD11C0894E11CF11C011D111DE20E8A
:10FAD000F31E041F151F21BDBB27A52F942F832FB5
:10FAE00082BD2F5F3F4F4F4F5F4FF89A80B5DB01CC
:10FAF0008D93BD012E153F054007510761F7C05E8C
:10FB0000DE4F288339834A835B83C052D1409601FC
:10FB10002D5F3F4FFB01108204C080EC8A8322E0FE
:10FB200030E08BE18093C6008091C00086FFFCCF5F
:10FB30008091C00080648093C000C15DDE4FF88179
:10FB4000CF52D140F093C6008091C00086FFFCCF19
:10FB50008091C00080648093C000432F3093C60022
:10FB60008091C00086FFFCCF8091C00080648093AC
:10FB7000C000922F2093C6008091C00086FFFCCF6A
:10FB80008091C00080648093C0008EE08093C600A6
:10FB90008091C00086FFFCCF8091C000806480937C
:10FBA000C00065E1C15DDE4FE880CF52D1406E25D7
:10FBB00069276427FE01319610C090819093C6009A
:10FBC0008091C00086FFFCCF31968091C000806498
:10FBD0008093C0006927215030402115310569F715
:10FBE0006093C6008091C00086FFFCCF8091C0006A
:10FBF00080648093C00085B1805885B9772081F4F6
:10FC0000C15DDE4F0881CF52D1400F5FC15DDE4F35
:10FC10000883CF52D14090E0A0E0B0E00D941AF4F8
:10FC200027982F9880E090E020ED37E0F901319798
:10FC3000F1F7019684369105C9F700008091C00064
:10FC40008D7F8093C00081E180935700E895EE2777
:10FC5000FF270994FFCF90E00D941AF497FB092E2B
:10FC600007260AD077FD04D02ED006D000201AF443
:10FC7000709561957F4F0895F6F7909581959F4F08
:10FC80000895A1E21A2EAA1BBB1BFD010DC0AA1FDD
:10FC9000BB1FEE1FFF1FA217B307E407F50720F0F5
:10FCA000A21BB30BE40BF50B661F771F881F991F70
:10FCB0001A9469F760957095809590959B01AC01B9
:10FCC000BD01CF010895AA1BBB1B51E107C0AA1FAC
:10FCD000BB1FA617B70710F0A61BB70B881F991FED
:10FCE0005A95A9F780959095BC01CD010895F99991
:10FCF000FECF92BD81BDF89A992780B50895262F31
:10FD0000F999FECF1FBA92BD81BD20BD0FB6F89400
:0EFD1000FA9AF99A0FBE01960895F894FFCF63
:040000033000E000E9
:00000001FF